:020000040000FA
:2000000000500020050F0000B1CC0000ED0E0000B3CC0000B3CC0000B3CC00000000000067
:20002000000000000000000000000000B3CC0000B3CC000000000000B3CC0000B3CC0000C4
:200040005D3F0000B3CC000075AB0000B3CC000075370000113B0000B3CC0000B3CC0000F0
:20006000B3CC000095AB0000B3CC0000B3CC0000B3CC0000B3CC0000B3CC0000B3CC0000C7
:20008000B3CC0000B3CC0000B3CC0000B3CC0000B3CC0000B3CC0000B3CC0000B3CC000068
:2000A000B3CC0000B3CC0000B3CC0000B3CC0000B3CC0000B3CC0000B3CC0000B3CC000048
:2000C000B3CC0000B3CC0000F7B5254B1B689B073DD50020452103F0E3F901200DF1060154
:2000E00002220EF066F870B300200DF1060102220EF05FF838B3BDF8064064BAADF80440D2
:20010000A4B2200B0BF060FB0AF002FF0646C4F30B000F460BF068FB0FA3D3E90023044671
:200120000D46304639460BF0C5FB02460B46204629460BF0BFFB0BF057FE0A490BF0B2FF4A
:200140000CF000F905E001A802210EF03FF84FF0004003B0F0BD00BF7B14AE47E17A843F84
:20016000A00D00200000C84208B51D4A03461268032A2BD1421E012A28D81A4A1A49012B1A
:200180001288088810D110B20BF02EFB0022174B0BF090FB10A3D3E900230BF08BFB00222F
:2001A000134B0BF0D3F909E00BF00EFB00220F4B0BF080FB00220F4B0BF07CFB0BF014FE40
:2001C0000D490BF06FFF0CF0BDF808BD4FF0004008BD00BFAFF300800000000000A0644081
:2001E000C40D00209C2000209E2000200000F03E00004440000059400000C84200000000FF
:2002000070B5514B04461B68002B00F096804F48002106220CF0A6FC14F0380F3ED00CF04C
:2002200008FF4B4B1D46186002F080FC28B1494B1B78D90740F1818008E00CF0FAFE2A6858
:200240006FF009039B1AC342EED4F0E73F4D0120682103F025F929463B2006220DF0A9FF02
:2002600006460020014603F01BF936B102F054FD202C07D1B5F900000DE0284606210DF049
:20028000A5FF5AE0102C02D1B5F9020003E0082C4CD1B5F9040002F0EDFB48E062074CD054
:2002A0000CF0C7FE2A4B1D46186002F03FFC20B1284B1B78DB0740D508E00CF0BAFE2A6804
:2002C0006FF009039B1AC342EFD4F1E70120682103F0E6F843201D4906220DF06AFF1B4D24
:2002E000064610B102F018FD03E0284606210DF06DFF0020014603F0D3F8F6B1042C02D13A
:20030000B5F9000008E0022C02D1B5F9020003E0012C0BD1B5F904000BF066FA08A3D3E936
:2003200000230BF0F1FB0BF05FFD00E000200A490BF0B8FE0CF006F870BD4FF0004070BD85
:200340000000000000606040E80D0020A42000202C2E0020842600200000C8420000000056
:200360002DE9F04F144623F00047024657EA04000E468FB01D469C46214634D06E4B26F0D5
:20038000004A9A459346B14626DC24D09F4223DC694B9F4200F08F80B9F1000FC0F28F8080
:2003A0004FF0000879BB644B9F4200F0A580634B9F4267D0BCF1804F00F0E283604B9C45FA
:2003C00021D1B9F1000F1EDB104631460FB0BDE8F04F0AF01DBF62B10AF1404000F5801020
:2003E00050EA0B0007D10346544918460FB0BDE8F08F5745CCDD53480FB0BDE8F04F0BF03B
:2004000005B84FF0000810463146CDF808C000920AF0C4FF009ADDF808C0BBF1000F20D04D
:200420004FEAD97909F1FF3958EA09037AD0464B9F4240F38F8003F104739F4240F31084A0
:20044000424B9A4540F39283BCF1000F40F3928337A1D1E900010B4602460BF02BFA03464F
:20046000C3E7BAF1000F04D0344B29F0404E9E45D6D1BCF1000FC0F2B683B9F1000F08DB51
:200480000346B2E7BCF1000FC0F2528413463146ABE70AF1404A0AF5801A58EA0A0340F037
:2004A0005E8402460B460BF051F80B4602460BF02BFB034699E700293FF46EAF8CE7244B9F
:2004C0009F422CDCA3F154739F427FF769AF40F213403B15834240F34B84C3F586630333F6
:2004E00021FA03F000FA03F38B427FF459AF00F00100C0F1020855E70AF1404303F58013C5
:2005000053EA0B0300F03983104B9A4540F36483BCF1000FC0F22E832346294665E74FF00E
:2005200002083FE7104631463346BCE7AFF300809C7500883CE4377E0000F07F0000F03F74
:200540000000E03F48E600000000E041FFFFEF3FFFFF3F43BAF5801F4FF0000205DACA4BFE
:200560000BF0A8F98A466FF034024FEA2A53C74ECAF3130AA3F2FF334AF07F571344B245B0
:200580000C9347F4401740F3D083C14B9A4540F307840026B4460C9BA7F5801701330C932E
:2005A0003946BC4B4FEACC0C6344D3E900AB52465B46CDF834C0CDE906010AF0C7FF52468F
:2005C0005B46CDE90801DDE906010AF0C1FF02460B460020B0490BF097FA02460B46DDE997
:2005E0000801CDE90A230BF065F902460B46CDE90223CDE904237B1043F0005303F5002339
:2006000099190020002306460F460293DDE902231046194632463B46CDE900010BF04AF921
:2006200002460B46DDE908010AF090FF5246CDE908015B46304639460AF088FF02460B46C2
:20064000DDE906010AF082FF02460B46DDE900010BF030F902460B46DDE908010AF076FFF7
:20066000DDE90A230BF026F9DDE90423CDE90601104619460BF01EF902460B4606460F46C2
:200680000BF018F96EA3D3E9002382468B46304639460BF00FF96CA3D3E900230AF058FF8E
:2006A00032463B460BF006F969A3D3E900230AF04FFF32463B460BF0FDF867A3D3E9002342
:2006C0000AF046FF32463B460BF0F4F864A3D3E900230AF03DFF32463B460BF0EBF862A303
:2006E000D3E900230AF034FF02460B46504659460BF0E0F8DDE9042306460F46DDE90001F8
:200700000AF026FFDDE906230BF0D4F832463B460AF01EFFDDE9006782468B4632463B4635
:20072000304639460BF0C6F800225C4BCDE908010AF00EFF52465B460AF00AFF02980F4651
:200740000646DDE9000132463B460BF0B3F832463B46CDE90001DDE906010BF0ABF80022AA
:20076000CDE906014D4B304639460AF0EFFEDDE908230AF0EBFE02460B46504659460AF0AC
:20078000E5FEDDE904230BF095F802460B46DDE906010AF0DDFE82468B46DDE900015246CE
:2007A0005B460AF0D5FE32A3D3E9002302980F4606460BF07FF830A3D3E90023CDE90401FD
:2007C000304639460BF076F8DDE90023CDE90601304639460AF0BAFE02460B4650465946A0
:2007E0000AF0B4FE26A3D3E900230BF063F802460B46DDE906010AF0ABFEDDF834C0284B0A
:20080000CDF818C06344D3E900230AF0A1FECDE900010C980AF0E8FF06460F46DDE9040174
:20082000204BDDF818C09C44DDE90023DCE900AB0AF08EFE52465B4636E000BFAFF30080B1
:20084000EF4E454A287ECA3F65DBC9934A86CD3F01411DA96074D13F4D268F515555D53FA8
:20086000FFAB6FDBB66DDB3F033333333333E33F000000E009C7EE3FF5015B14E02F3EBED6
:20088000FD033ADC09C7EE3F000040438E98030079B60B0090E400000000F03F0000084074
:2008A00080E4000070E40000CDE906AB0AF050FE32463B460AF04CFE029832463B46824639
:2008C0008B460AF043FEDDE906230AF03FFEDDE904230AF03BFE02460B46DDE900010AF06C
:2008E00035FECDE9020108F1FF3858EA09030CBFD54BD64B0022CDE904230023CDE9004565
:200900000093DDE90067204632463B4629460AF01DFE52465B460AF0CDFFDDE90223804684
:200920008946204629460AF0C5FF02460B46404649460AF00DFE04460D4652463046394678
:200940005B46CDE902450AF0B5FF06460F4620463B46294632460AF0FBFDBD4B824699423F
:200960008946884640F3138101F13F4303F5E003034340F0E581A0A3D3E90023DDE90201FD
:200980000AF0E6FD324604460D463B46504649460AF0DCFD02460B46204629460BF01AFA6F
:2009A000002840F0CD814C462015A0F2FE304FF4801101414144C1F30A50A64CA0F2FF35A9
:2009C000C1F3130BC0F5826003302C414BF4801B21EA040300224BFA00FB394630460AF0D1
:2009E000B5FD06460F46DDE902018BEAE87B0BEBD87B32463B464FEA0B5A0AF0A9FD80A360
:200A0000D3E90023002420460D460AF053FF3246804689463B46204629460AF097FD024695
:200A20000B46DDE902010AF091FD77A3D3E900230AF040FF76A3D3E9002306460F462046E3
:200A400029460AF037FF02460B46304639460AF07FFD06460F4632463B46404649460AF04A
:200A600077FD42464B4604460D460AF06FFD02460B46304639460AF069FD224680468946FB
:200A80002B46204629460AF015FF63A3D3E9002306460F460AF00EFF61A3D3E900230AF098
:200AA00055FD32463B460AF005FF5FA3D3E900230AF04EFD32463B460AF0FCFE5CA3D3E91F
:200AC00000230AF043FD32463B460AF0F3FE5AA3D3E900230AF03CFD32463B460AF0EAFEEB
:200AE00002460B46204629460AF030FD06460F4632463B46204629460AF0DCFE0022CDE946
:200B000000014FF08043304639460AF01FFD02460B46DDE900010AF0F7FF424606460F464E
:200B20004B46204629460AF0C5FE42464B460AF00FFD02460B46304639460AF007FD22467F
:200B40002B460AF003FD02460B4600203F490AF0FDFC8A44BAF5801F0246C0F2278153469F
:200B6000DDE904010AF0A6FE03463EE4BCF1000FFFF66EAC0023194637E40B46334934E454
:200B80003346104631460AF095FE03462DE4324B21F000449C4240F3FA80304B0B440343BB
:200BA0000CD132463B460AF0D1FC02460B46DDE902010BF0FBF800283FF4F6AE20A3D3E9CA
:200BC0000023DDE904010AF075FE1DA3D3E900230AF070FE034608E4BCF1000FCADA2346B5
:200BE00005F1004101E402460B46002017490AF08BFF42E4AFF30080FE822B654715973CB5
:200C000000000000432EE63FEF39FAFE422EE63F396CA80C615C20BED0A4BE726937663EAD
:200C2000F16BD2C541BDBB3E2CDE25AF6A56113F93BDBE166CC1663F3E5555555555C53FFB
:200C400059F3F8C21F6EA5010000F0BF0000F03FFFFF8F40FFFF0F00FFCB904000346F3F27
:200C6000634B9A4582DD634B9A453FF7EDAB0022604B0AF06BFC54A3D3E9002306460F4688
:200C80000AF018FE52A3D3E90023CDE90001304639460AF00FFE3246CDE902013B46304695
:200CA00039460AF007FE002282468B4630463946514B0AF0FFFD02460B4647A1D1E9000138
:200CC0000AF044FC32463B460AF0F4FD02460B4600204A490AF03AFC02460B4650465946AC
:200CE0000AF0E8FD3EA3D3E900230AF0E3FD02460B46DDE902010AF029FC06460F46DDE993
:200D0000000132463B460AF023FCDDE90023002082468B460AF01AFC02460B463046394680
:200D20000AF014FCCDE90201DDE50026B44637E4334600202F490AF0E7FE0346FFF755BBB4
:200D400029A3D3E90023DDE904010AF0B3FD26A3D3E900230AF0AEFD0346FFF746BBB8F13D
:200D6000010F03467FF441AB01F10041FFF73DBB00297FF446ABC3F58263033347FA03F006
:200D800000FA03F3BB4217D08846FFF710BB1B4B9C423FF709AEDDE90023924693462EE611
:200DA0004FF480264FF0010CFFF7FABB5A4600F027F802460B46D3E600F00100C0F10208A6
:200DC000FFF7F5BAAFF30080000000604715F73F44DF5DF80BAE543E555555555555D53F85
:200DE000FE822B654715F73F9C7500883CE4377EFEFFEF3F0000F03F0000D03F0000E03F5B
:200E0000F8B5C1F30A5604460D460B46174616BB21F00043034332D00022314B0AF04AFD7A
:200E2000304A044697420D460B4637DB40F2FE72C1F30A56363E3E44964215DD24A1D1E96A
:200E4000000122462B460AF075FB21A3D3E900230AF030FDF8BD40F2FF72964224D040F22E
:200E6000FE723E449642E9DC002E09DD23F0FF4323F4E00343EA065520462946F8BDF8BDB9
:200E800016F1350F15DA4CF250339F42D6DC12A1D1E9000122462B460AF04CFB0EA3D3E9CF
:200EA00000230AF007FDF8BD02460B460AF050FBF8BD23F0FF4323F4E003363643EA065586
:200EC000204629460022084B0AF0F4FCF8BD00BF9C7500883CE4377E59F3F8C21F6EA501C3
:200EE00000005043B03CFFFF0000903C044B1A68B2F5806F03D01B689B0500D4FEE77047DC
:200F000028ED00E008B508F039FC0C4A0C4B0D498B4204D252F8041F43F8041BF7E70A4855
:200F20000A494FF000028842B8BF40F8042BFADB01F0EEF8FFF7DAFF08BD00BF6FEC00001B
:200F4000000000209506002098060020A33600202DE9FF410E4601880446702917462FD08D
:200F600029D8002940F0A6804AF6AA22554B1A8041F202221A814B225A8140F212429A81D0
:200F80004FF6E1725980DA819980D98000F0B4FD4D484FF4A0610CF07EF94C4B01219B686A
:200FA000812098474A4B4B481A684B4B53F8221003F0D6FB3AE0812925D095295CD079E034
:200FC00041480CF083F90546002833D043480CF039F8002102220B4641480BF045FF3E4BFB
:200FE0003F4859680BF065FF3E4A02AB10685168072203C33A4802A90BF0B2FF3A4B002275
:201000001A8081232380364B37480093374B314601932C4A43F2163300F074FD01284DD92B
:2010200033480CF00FF828480CF03EF970232380012044E02F4B1B78B342F7D1234B9F42FB
:20104000F4D1DFF88C800122254829462B460BF00BFF214FD8F80030214857F823100BF01D
:2010600028FFD8F80030244857F8231003F078FB224B1D8095232380194B204800931B4BCB
:20108000314601930F4A43F2163300F03BFD012814D917480BF0D6FF0D490B685A1C184B5F
:2010A0001340002BBEBF03F1FF3363F0030301330B60BBE700232380032000E0002004B0D8
:2010C000BDE8F081503600207007002008E500006C07002050E60000280400206EE6000067
:2010E000A00600209CE6000058070020051100007FE600008E36002089E6000044070020F0
:201100000300008007B501A90BF021FF019A0146024803F025FB03B05DF804FBA4E60000FB
:2011200010B5044600200146024606F067FC044B048218600CF095F9024B188010BD00BF50
:201140008007002098200020024B1888013080B21880704798200020F7B5044601232160FE
:20116000037100230B700E46016800790A7842EA80120A70206862790178120102F030025A
:201180000A430270A27A206802F00F0102780A4302702268A179517022892168120A8A7002
:2011A00022682189D170A279002A00F04081224652F80A5B0435A17A8B4205D212F8011F8B
:2011C000013305F8011BF6E7E37C03F0020303F0FF015BB194F86A30002100932A46012024
:2011E00004F16B030BF0F5FD01210544E37C1A0708D5236C2A4600930320636C0BF0E9FD72
:2012000003210544E37CDB060AD594F824302A460093042004F125030BF0DBFD04210544DD
:20122000E37C9F0606D52A46052000230BF0A1FD05210544E37C580606D52A460620636E10
:201240000BF097FD0621054494F91330002B07DA2A460720B4F850300BF08BFD07210544FC
:20126000237DDA070AD5A36C2A4600932F2301930820E36C0BF0BDFD08210544237D1B07B6
:201280000AD5E36D2A4600932F2301930B20236E0BF0AFFD0B210544237DDF0606D52A468E
:2012A0000C20A38B0BF065FD0C210544237D580606D52A460E20236A0BF05BFD0E21054432
:2012C00094F91430002B0CDAD4F894302A460093262301930F20D4F898300BF08AFD0F2147
:2012E0000544637D9A0707D52A461120B4F868300BF03FFD11210544637DDB060AD5636D41
:201300002A460093262301931420A36D0BF071FD1421054494F91530002B1CDA676F94F86D
:2013200078303F010BB147F00807B4F87A3000201B09421C5B0892B201D01046F9E7002AF3
:2013400018BF024602F00F0317202A463B430BF010FD17210544A37D1F071DD5D4F88070C8
:2013600094F884303F010BB147F00807B4F8863000201B09421C5B0892B201D01046F9E739
:20138000002A18BF024602F00F031B202A463B430BF0EFFC1B210544A37DD80607D52A4622
:2013A0001C20D4F88C300BF0E4FC1C210544E37D1A0708D5236B2A4600932320636B0BF00D
:2013C00008FD2321054494F91730002B08DAA36B2A4600932720E36B0BF0FBFC2721054471
:2013E000A37EDB0606D52A463C20D4F890300BF0C0FC05442368EB1A3E2B11DCB4F89E3058
:2014000013B1FF2305F8013B2846D4F8A010B4F89E200BF043FBB4F89E00AD1B284407E0BB
:20142000044A054B0025256028461A6000E0042003B0F0BDFBE60000480400202DE9F04184
:201440008C46104904460F680D46BE4600F11008764620686168083403C64445B646F7D1E1
:201460001146A7F812C01A46384606F02DFC2C680021204610220BF075FB00236382BDE842
:20148000F08100BF800700202DE9F7438846064600219146A4220BF065FBC6F8008098F824
:2014A00000309B09337198F80020012BC2F30112727198F8004004F00F07B77298F8012079
:2014C000B27198F8021098F8032042EA0122328101D0A14A02E0082F04D9A04AA04B80206B
:2014E0001A6035E108F1040421463A4606F10B000BF05EFA06F11300002108220BF032FBA2
:201500003C44002708EB09039C4280F02081257805F0F003F02B14D10134C4EB0808C144B8
:201520001FFA89F9B9F1300F8ABF3023A6F89E90A6F89E30B6F89E300020C6F8A040E054E5
:2015400006E12B090D2B05F00F0503D1637802340D330AE00E2B03BFA378627803F20D131B
:20156000013404BF03EB022303340D2D03D114F8015B0D3508E00E2D01BF657805F20D129B
:2015800014F8025B02EB05251F4406EBD70107F00703012202FA03F0CB7C0E2F43EA0003D8
:2015A000CB746CD029D8062F00F0AB8017D8032F00F084800BD8974240F0C0802A46082D79
:2015C00028BF082286F86A2006F16B006DE0042F5BD0052F40F0B28086F89C20B5E0082F49
:2015E0007DD06ED30B2F73D00C2F40F0A780204629460BF05FFBB083A7E01B2F00F0878029
:2016000026D8112F4AD009D80F2F40F097802623009306F1980006F1940166E0142F69D053
:20162000172F40F08B80204629460BF043FBC0F3C00300F0070286F8783010239340A6F8E2
:201640007A3020F00F0393400009F36770677CE0232F2ED008D81C2F70D1204629460BF0C9
:2016600029FBC6F88C0070E0272F22D03C2F65D1204629460BF01EFBC6F8900065E02046E1
:2016800029460BF017FB30625FE02A46082D28BF082286F8242006F1250006E020462946AE
:2016A0000BF008FBA6F868004FE021460BF080F94BE02C4A2A4BA5201A6049E0746435642D
:2016C00043E0204629460BF0F5FAA6F850003CE02F23009306F1600006F15C0105E02F2357
:2016E000009306F14C0006F1480122462B460BF0ECFA2AE02623009306F1580006F1540199
:20170000F3E7204629460BF0D5FA70661DE0204629460BF0CFFAC0F3C00300F0070286F8F7
:20172000843010239340A6F8863020F00F0393400009C6F88830C6F8800006E0FB0704D528
:20174000094A074B82201A6002E02C44DAE6002003B0BDE8F08300BF2AE7000041E70000D3
:201760004804002066E700008DE700002DE9F04F038887B0814633B1B3F5AD7F13D00023A0
:2017800003800320ACE1A848A84900F0A3FC00F02FFA43F21630FFF7C3FC4FF4AD73A9F859
:2017A000003001209CE1A24B1B788B4240F09281A04D00232B70A04B1B789807EDD59F4E54
:2017C0009F4BA04C316820461A88FFF75DFEB046074628709C4E002840F01781A379013B34
:2017E000032B00F2DC80994B994A1B7802F1080128332089D25A00F005FA3060002800F050
:20180000C8802023ADF80A30637903970497059723B9904802214522238905E0FFF794FC5C
:2018200003468C48012145220BF01EFBA27A1AB1884889490BF02BFB04AB0093814803A98D
:2018400000220DF10A030BF050FB40B1BDF80A30202B28BF2023ADF80A30049B05937F4BE0
:20186000D3F800C0BCF1000F00F08F803268794FDFF8D0B105A90091BDF80A30584639461D
:201880007432E047BA4600286ED02B78002B6BD19BF8163019070DD597F90630002B09DB5B
:2018A000BB7D1A0706D4634BA1221A706C4A6D4B1A6059E094F91530059A002B41DA049B83
:2018C0009A4223D1BAF89E10624F8A4205D38223BB71384664490F2244E0BDF80A308A1A9F
:2018E0009A4294BF00220122039938460BF016FB0499B7F89E30BDF80A205B1AD7F8A0E091
:201900009A423846714428BF1A462BE001320399BDF80A3006D1BAF89E209A4294BF002210
:20192000012200E001224B4F38460BF0F7FABDF80A20BAF89E30934216D93846D7F8A0105D
:2019400010E08AB1013218BF01220021414820230BF0E4FABAF89E203E481F2ADAF8A010A8
:2019600088BF20220BF0FCFA2B78002B4DD13768384807F13601FFF7EFFB80B2B88600283B
:2019800043D12C4BC1221A703FE0A1232B70374A02E0A323364A2B70324B1A6035E06368B6
:2019A00023F07F4323F0FF0313B9C3232B700CE06379032B09D1254B254A1B7802F10800B3
:2019C0002833D15A228900F0F3F9208900F09EF9306040B1C76AD0F830A000F035F917B19A
:2019E00050461849B847002333606379154A012B0BD8D37C5B0608D5144B15491B7801F122
:201A000008002833C95A00F011FB2B78094F30682BB900283FF4C1AE00F02CF9BDE6C22B5E
:201A200028D100F011F9B8E674040020AAE600009936002054260020283200203432002064
:201A4000302E00208407002028080020F92C0020402E00202C0800208F070020D408002034
:201A6000A9E7000048040020B9E70000C9E70000DAE7000000F0E8F83B78C32B03D10023F1
:201A80003B70032104E0BF2B84BFA0233B7002212A78238914480BF0E7F9144B144D1C680C
:201AA00020460BF0D7F8214602460F480BF058FA104BD8F800401B78214628330A485E5BD8
:201AC000FFF74AFB314683B2224605F10800FFF7B5FC62E688297FF460AE00F025F95CE648
:201AE00007B0BDE8F08F00BF8407002048040020402E0020F92C00200148002103F074BCD5
:201B00004C0400202DE9F3411F46038804461646089D23B140F2991293422DD04AE02F4AAA
:201B200003611268C36042602D4A13702D4A13602D4A1370FFF708FB314628813A4600F09B
:201B400061F8A060E0B1294BC362A3681C63216921B12846002230230BF0E0F9A6682846E9
:201B600006F13601FFF7F8FAB086A06800F082F840F29913238021E082291FD1E06818B971
:201B800000232380022025E0DFF8588000230093134A41460BF0A9F9D8F8002023699A421A
:201BA0000ED1099BE06898472369013323610C4B1B7853B90023238003200BE0012009E063
:201BC000094A137801331370F1E7074B1B78032BF0D8AFE702B0BDE8F08100BF1812002056
:201BE00055260020D00800205626002073CF0000024B1A68024B1A60704700BF181200201E
:201C0000DC080020F8B507460D480D4616460BF0E0FB044690B1294600230376878000F15E
:201C20001A0305F1100251F8040B914243F8040BF9D16685034821460BF099FB2046F8BDF9
:201C40005C040020D808002010B5044660B1083003F08EFA214605480BF075FB2146BDE806
:201C6000104003480BF0C9BB10BD00BFD80800205C0400202DE9F041044600F11A0738461D
:201C8000618D04F13602A38EFFF7D8FB94F83650C5F3011575BB237E032B1AD853B90BF057
:201CA000E0FBC023B0FBF3F202FB130000F28110E06002E0E3685B00E360124D124B2E68E6
:201CC0001B6804F108002B600BF0F7FA2E60BDE8F081E66A3846618DD4F8308000F04AF8FF
:201CE0002046FFF7B1FF56B1404629463346BDE8F04118472046BDE8F041FFF7A5BFBDE8F3
:201D0000F08100BF18120020DC08002010B5044604480BF00EFB20B18388A34201D00068EC
:201D2000F9E710BDD808002010B509480BF001FB044664B104F108000BF0C8FA28B1237E56
:201D4000204601332376FFF795FF2468F1E710BDD808002010B50446044821460BF04DFB90
:201D60002146BDE8104002480BF0EDBA68040020700C0020F8B506460C480F460BF0D9FA83
:201D8000044600257CB104F11800314610220AF0DDFD30B9238DBB4203D12046FFF7DAFF7E
:201DA00001352468EEE72846F8BD00BF700C00202DE9F04106460F480F4690460BF0B9FA4B
:201DC0000446002594B104F11800314610220AF0BDFD48B9238DBB4206D1A38E434503D1D3
:201DE0002046FFF7B7FF01352468EBE72846BDE8F08100BF700C00202DE9F74F0C9F8B4686
:201E000090461E4600F080F90BF093FA002481462546B9F1000F7CD04DB13B689D4205D3E4
:201E2000B4423EBF2C2308F80430013401353B689D4205D3B4423EBF3C2308F804300134AC
:201E40003A686B1C934205D3B4423EBF2F2308F804300134D9F804C002356046CDF804C003
:201E60000AF0F8FE3B6800EB050A9A45DDF804C00FD9711C5B1B08EB0400091B002BACBFC1
:201E800063440CF10003344A0BF0EDF90444B4423FD23B689A4505D3B4423EBF3E2308F83F
:201EA00004300134D9F80C300AF1010543B31B7833B33B689D4205D3B4423EBF3B2308F891
:201EC00004300134D9F80C300AF1020A184601930AF0C0FE3A6800EB0A059542019B0FD9E4
:201EE000CAEB020A711C08EB0400091BBAF1000FA8BF5344184A0BF0B6F90444B44204E093
:201F0000B44203D93A682B1B934203D8D9F800907FE74CB14146584622460BF021F8584654
:201F200028210AF0BFFF09E045B1822158460AF0A8FF584609490F220BF012F8B9F1000F00
:201F400003D14FF0FF333B6002E03B681E443E6003B0BDE8F08F00BFFEE70000B9E7000001
:201F600038B50C46054620B90E480BF06BF8042038BD0D480BF066F8AB79413B3E2B04D99D
:201F80000A480BF05FF8032038BDEB7C5B0604D407480BF057F8022038BDB4FA84F04009CA
:201FA00038BD00BF07E8000013E8000022E8000036E800002DE9F04104460A4D0F462146B7
:201FC000094C1646284600220AF04EFF21682846FFF7C2F8314683B222683846BDE8F04148
:201FE000FFF72CBA780C00203432002070B505460C480E460BF09DF9044684B10A482978C0
:202000006A7802F0ADFB237FB34206D104F11D00294632460AF09AFC08B12468EDE72046CE
:2020200070BD00BF740C0020A6E80000F7B51446074622480E460BF005F8A57A20480BF0FB
:2020400001F80DB91F482DE01F480AF0FBFF294604F10B00FFF7CAFF054648B91B480AF01B
:20206000F1FF0320394632462389FFF7A3FF22E063792BB90220394632462389FFF79AFFFC
:20208000EB6AC3B120460021FFF76AFF012806460CD1204601A90AF01CFF019B2A6B934214
:2020A00003D10B480AF0CEFF05E02B63EB6A284621463246984703B0F0BD00BF21E9000015
:2020C0003CE900004AE900008EE90000A4E90000ECE9000010B504464160094821460BF06C
:2020E00046F994F90830002B09DA216ACB6933B18B6823B1BDE8104002480BF038B910BD6C
:20210000200D00201C0D002000487047200D00202DE9FF41604C6148236801215B689847E3
:20212000236801210A461B685C4898470BF05BFF01F058FF01F0C2FE00F03AFF01F0FCFE3A
:2021400000F05CF9564B01201860A3F58043043B186003F5005324331B680AF00EFF0BF0C7
:2021600046FF01F085FA01F029FA0BF0BDF801F055FB03F093F841F234200BF070F901F04B
:2021800093FC03F0B5F947480AF05CFF4AF630520021454802F0E4FA44480AF053FF0021F2
:2021A000434803F021F902F0CDFE0BF073F802200AF0E3FE3F4802F0D3FA3F4B3F4C18688C
:2021C0000AF040FF3E4802F0CBFA3E4B18680AF039FF3D4802F0C4FA21683C4802F0C0FA60
:2021E000E469A04720B1A0470146394802F0B8FA0A200AF020FF002507F0B2FD02A80821A6
:20220000019501F031FB9DF80F309DF80E80314C314E43EA082802AB03CBF76A206061609E
:2022200002204AF6CD31B84741460320B8470F210120B8470822736B02A90B209847B36A6C
:2022400001A9012098470199244802F089FA244A236813606368536007F0D0FE29462148D2
:2022600003F0C2F802200AF088FE29461E4803F0BBF81E480BF004F801F0E6FA01200AF04B
:202280007CFE03F023F8044601F0D4FA14F0FF0FF7D101F031FDF4E7D8010010004003406D
:2022A0000C40094056EA000079EA000090EA000050050020A4EA0000E0E5000014E60000AA
:2022C000ABEA0000F8E50000B2EA0000FEE70000B9EA00009B360020A0E50000DCEA00002C
:2022E000382E0020D405002098040020B0E4000070B505880446772D30D07E2D3FD0002D88
:202300004DD102F0C3FF294B1870294B1D601D462B68284A264E52F823204AB1264800210B
:20232000C154936880209847336801333360EFE7224A1370772320E01F4AD256002A12DBA5
:202340001B4A136801331360194B1C4A1B6812789342F1DB1A4B1B68002BEBD0184A00232B
:202360001360134AEFE7114A00201178114A52F8232003F00DF830B97E23238013E00B4B5D
:202380001B788B420FD10A4B0B491A688B5C03F07F038B540A4A136801331360D0E7002347
:2023A0000380032070BD012070BD00BF8E360020240D0020A80400208F3600205E260020B3
:2023C000280D0020094B1A780023934204DA084951F82310814207D106490748CA5C62F06E
:2023E0007F02CA5403F018B80133EEE75E260020A80400208F3600209804002008B500F0B4
:2024000019F8024B00221A7008BD00BF5F260020024A13781843107000F026B85F26002064
:20242000034A137823EA0000107000F01DB800BF5F26002010B5094B1A6872B90122084CD1
:202440001A6023680A20DB6B984723680F20DB6B9847044B4FF404421A6010BD2C0D0020D1
:20246000B4010010A0200240094B4FF404421870084B1A60C20744BF4FF4806243F8102CFB
:20248000830742BF044B4FF400421A60704700BF60260020A0200240902002408138012871
:2024A0009ABF024B18680020704700BF500D0020024B032202481A60FFF784BF500D0020F7
:2024C000B8E400002DE9F84F524B04461B68032B03D04FF00040BDE8F88F431E012BF8D890
:2024E0004D4D0622002128460AF03CFB0020772100F0D6FFF720294606220BF05AFE20B903
:20250000284606210BF062FEE3E7EB782F7943491B0343EA07136F79088843EA17132A7894
:2025200095F801B0AE78C0EB13156D434000B1F904E0C0EBD3032D13B1F902000EFB05F576
:202540005843AD1305EBE0274FEA6708A8F57A484FEAA80E0EFB0EFEB1F90A304FEA6E355E
:202560005D43B1F90830C88808FB03F35B1003EBE505AD1405F500456843C0138F61B1F935
:2025800010A0B1F90EC0B1F90C9039D0360946EA0B1B4BEA0232C2F1000B40F635420FFA52
:2025A0008CFC0CFB08F84FEAEE2E0FFA8AFA4FEA48080AFB0E8E4FEA094909EBAE03ABEBBA
:2025C00023335A4302F1434303F5A003002BB3BFB3FBF0F35A00B2FBF0F35B00DA0852430A
:2025E000B1F91600520B4243B1F914009D086843401300EB2232B1F91200104403EB20106B
:20260000012C05D107EB870080300012BDE8F88FBDE8F88F500D0020612600206726002053
:20262000802873B50D46254C02D081281DD041E0012626600AF0CBFC2149182288200BF0C8
:20264000B8FD02ADB62305F8013D29463246E02007F0C0FE0AF0BBFC002329463246F42097
:202660008DF8073007F0B6FE24E0206818B391B10AF0ADFC25230DF107010122F4208DF8AD
:20268000073007F0A7FE00230E4803210E4A02F08FFC02230DE00B4802F0B0FC0AF097FC65
:2026A000F4200DF1070101228DF8075007F092FE01232360206802B070BD00BF500D002030
:2026C00067260020300D0020B1240000813801289ABF024B18680020704700BF780D0020D8
:2026E000024B032202481A60FFF76CBE780D0020C8E4000010B504464421002000F0D0FEE1
:20270000084B1CB14FF480521A8000E01C801A88022052BA1A8003490246BDE8104007F084
:2027200059BE00BF9A200020802838B50D46184C02D0812813D028E0164D01202B689B6B1A
:2027400098472B6801209B694FF4804198472B680120DB694FF080419847002011E020688F
:20276000A0B151B10120FFF7C5FF00230A4824210A4A02F01DFC022306E0074802F03EFC8C
:202780002846FFF7B7FF01232360206838BD00BF780D0020B4010010580D0020E126000046
:2027A00070B52F4B05461B68032B02D04FF0004070BD8207FAD0032849D12A4E002044216B
:2027C00000F06EFE0420314602220BF0F2FC264C80B133885BBA33805B040BD50120214608
:2027E00002220BF0E6FC28B12846A11C02220BF0E0FC20B91C4804210BF0E8FC002063789D
:202800002578A27843EA0525E37843EA02230028CCD0980809F0F2FB4FF0745109F042FC78
:20282000124909F03FFC09F08DFD114B1860A80809F0E4FB4FF0745109F034FC0B4909F0B0
:2028400031FC09F07FFD0B4B1860012070BD012801D1074B02E00228A8D1064B186870BDEA
:20286000780D00209A2000207F26002000007A44540D00207C0D0020014B1868704700BFEA
:20288000A00D002073B506460E4C00204521256800F006FE36B141F2C203ADF806300123B8
:2028A000236006E04FF4865305F00205ADF8063025600DF106010222012007F08BFD02B0BC
:2028C00070BD00BFA00D0020802810B50C4602D0812802D013E000200FE051B10120FFF718
:2028E000D1FF08481021084A002302F061FB012010BD044802F082FB2046FFF7C3FF0020DD
:2029000010BD00BF800D00200D29000007B50020452100F0C5FD01200DF1060102220BF00F
:2029200048FCBDF90630002B06DA0848FFF74AFD074B02221A6005E006481021064A002308
:2029400002F036FB03B05DF804FB00BFD8E40000A00D0020800D00200D2900008138012840
:202960009ABF024B18680020704700BFC40D002038B5114B114C03221A602378ABB1104D11
:202980000020432100F08CFD0421284600F0C4FC20700020014600F083FD2B88094A5BBA75
:2029A00013806B88084A5BBA1380012323700748BDE83840FFF706BDC40D00208326002001
:2029C000A02000209C2000209E200020E8E40000802837B5204D02D081281BD039E01F4BA7
:2029E00000241C801E4B20461C801E4B43211C805C8000F055FD02A91023022021F8023DCD
:202A0000024607F0E7FC184B21461870204600F047FD1CE02868E8B1B1B1134C23785BB11B
:202A20004321002000F03CFD002000F057FC20700020014600F034FD00230C4803210C4A7D
:202A400002F0B6FA022303E0084802F0D7FA01232B60286803B030BDC40D00209C2000200D
:202A60009E200020A020002083260020A40D00207129000008B5114B1B78032B1CD8DFE8CF
:202A800003F002070C1108F0AFFE00220C4B0EE008F0AAFE00220B4B09E008F0A5FE002253
:202AA000094B04E008F0A0FE00224FF07D5308F001FF09F099F908BD002008BD872600201D
:202AC0000000103F0000203F0000303F813801289ABF024B18680020704700BFE80D002026
:202AE000024B022202481A60FFF76CBCE80D0020F8E4000010B50C4C0120682100F0D0FC0F
:202B00003F23214601226C20237007F063FC21464F236B200122237007F05CFCBDE81040F6
:202B20000020014600F0BCBC8826002010B5084C0120682100F0B4FC214601223A200BF0B6
:202B400038FB0020014600F0ABFC207810BD00BF84260020802838B502D0812824D04DE025
:202B6000284C072023689B6B9847236807209B694FF40051984723684FF08041DB6907202B
:202B8000984723680C20DB6B984723684FF440729B6A0C204FF4806198471B4B4FF480524B
:202BA0001A600022194B28E011F03F0110D0174B4FF480521960164B164C1A60012516483B
:202BC0000821164A0023256002F0F2F9256015E0134B1B68DB0411D50C4B0F48196002F0AE
:202BE0000DFAFFF787FF0F4B1B6813F00103FAD1084A1360044B4FF480521A60054B186830
:202C000038BD00BFB4010010A0200240EC0D002090200240E80D0020C80D0020292C0000CF
:202C200080200240042800402DE9F041324B1A681C4612F0380F15D0304E337893B1304F84
:202C40000025012068213D7000F02AFC39461C20012207F0BFFB07462946284600F020FC1D
:202C600007B13570274D24682F7804F03F0417BB0CB3254E0120682100F012FC09233146CA
:202C800001226B20337007F0A5FB3F23314601226C20337007F09EFB194901221C202F7031
:202CA00007F098FB31463A2001220BF082FA3846394600F0F5FBE3B22B709CB1DB43124C49
:202CC00001206821237000F0EBFB214601226C2007F080FB0020014600F0E2FB0B480BF0D7
:202CE0008AF901E0FFF706FFBDE8F04108480521084A002302F05CB9EC0D002087260020C7
:202D000085260020862600208826002080380100C80D0020E12A0000064B1A7859785A7017
:202D200019709A78D978DA7099701A7959795A7119717047A420002008B5034B1B685B68AE
:202D40009847C0F3804008BDB401001030B9064B186800F0010080F001007047012806BFD6
:202D6000024BD86800207047C0200240F00D002030B9044B186880F01000C0F300107047FE
:202D800000207047C020024038B5E0B9134C20460AF0BEFA08B3204604210AF0A7FA104B01
:202DA0001B6813F0010504D100F04CFCE560A06038BD00F047FCA368C01AE060BDE83840CB
:202DC0000848FFF7FFBA042807D1BDE838404FF480414FF0805200F0C3BE38BDF00D00203B
:202DE000C020024008E50000802870B5144602D0812816D070BD184B012595401D60174BD2
:202E000010461B6800211B68154A9847154AE0B21368154923EA05051560BDE8704001F05B
:202E200075B80E4E89B10C4B012595401D60336810461B680A4A002198470A4A136823EA5C
:202E40000505156033681B6B01E033685B6B2046BDE87040184700BFE0200240B4010010B0
:202E600000400720D0200240892D0000024B186800F00800704700BFC020024081380128C4
:202E800008B507D8044B03201B685B689847C0F3804008BD002008BDB4010010802810B5B0
:202EA00002D0812819D020E0114C032023685B6B9847104B08221A600F4B4FF4A0601B68DF
:202EC000DB699847236803201B6800210B4A984703200B4901F01AF807E0054B1B6809B15B
:202EE0001B6B00E05B6B03209847012010BD00BFB4010010E0200240B801001000200320E4
:202F0000052F000008B507480AF002FA40B10648FFF758FABDE80840024840210AF0E6B9C3
:202F200008BD00BF000E002028E5000008B5064B04201B685B699847034B04201B685B6BBF
:202F400098470128F8D108BDB8010010032808B51ED107F00DFB104B00219B68812098473D
:202F60000E4B00219B68812098470D4B00219B68812098470B4B00219B68812098470A4B09
:202F800081209B6800219847084B4FF480521A60BDE8084000F006B9B8E40000D8E40000B7
:202FA000C8E40000E8E40000F8E40000A020024070B50BF018F80646FFF7B8FF3C4B4FF4C8
:202FC000A0601B68DB6998473A4B01221A603A4B1B689B07FBD5394C00F0B6F807F0C2FAD9
:202FE0000BF0FBF8364800F05DFF236819209B6B984723684FF400519B69192098472368AA
:2030000018209B6B984723684FF400519B6918209847236817209B6B984723684FF4005193
:203020009B691720984723681B209B6B984723684FF400519B691B20984723681E209B6BBF
:20304000984723684FF480419B691E20984723680D20DB6B98471B4B4FF400551D602368FE
:203060004FF4807200219B6A0D209847236802209B6B9847236829469B69022098472368CD
:203080000B209B6B9847236829469B690B20984723681D209B6B984723681D209B69294630
:2030A00098471EB9BDE870400AF0A1BF70BD00BFB80100102820086028200840B4010010F1
:2030C000CC040020A0200240024B186800F00100704700BF04280040024B1868C0F380104E
:2030E000704700BF0428004008B5064B02201B685B6B9847012803BF034B186800F00100EC
:20310000002008BDB801001060200840024B186002200AF070BF00BF0428004010B5084BE6
:2031200008481B685B68984710F00C0F044602D00420FFF7EBFFB4FA84F0400910BD00BFE8
:20314000AC0100100020004070B5104B02201B685B6998470D4D02202B685B6B98470128AD
:203160000446F7D12B684FF44070DB699847084B1C60084B1B689B07FBD5074B07481B6859
:2031800007491B680122BDE870401847B80100102820086028200840AC010010002000405F
:2031A000006CDC02214B10B5FF221A70FFF79CFF20B11F4A002313601E4A13601E4B4FF401
:2031C00040701B681B6A98471C4B01221A601C4B1B689B07FBD51B4C082023689B6B9847F9
:2031E00023684FF400519B6908209847236809209B6B984723684FF400519B6909209847E1
:20320000236805209B6B984723684FF480419B6905209847236806209B6B9847236806203B
:203220009B694FF48041BDE810401847920600200428004010040542B8010010282008603A
:2032400028200840B40100102DE9F041204B214A1B7807465B0013601F4B88461E46027838
:203260001A60FFF739FF0028FBD10320FFF74EFFFFF72AFF0028FBD1FFF750FF0446012584
:20328000454512D204B37B5D336008F1FF339D4209D20120FFF73AFFFFF716FF0028FBD16A
:2032A000FFF73CFF04460135EAE76CB10520FFF72DFFFFF709FF0028FBD1FFF72FFF0446C8
:2032C000FFF70AFF0028FBD12046BDE8F08100BF89260020002800400828004008B50B4B06
:2032E0000B4A1B785B0013600A4B1860FFF7F4FE0028FBD10720FFF709FFFFF7E5FE002849
:20330000FBD1BDE80840FFF709BF00BF892600200028004008280040F8B506460D46204B19
:20332000204A1B785B0043F001031360FFF7D4FE04460028FAD10B20FFF7E8FE01276B1ECE
:203340009C4212DA97B1FFF7BFFE0028FBD1FFF7E5FE07460028F2D0134B09201B68335512
:203360000134FFF7D3FEE4B2E9E70FB9002414E0FFF7AAFE0028FBD1FFF7D0FE0446002843
:20338000F4D0094B35441B68052005F8013CFFF7BDFEFFF7A1FE0028FBD12046F8BD00BFA6
:2033A0008926002000280040082800402DE9F74F82469046374A1E4613788B4636495B0051
:2033C0000B600378354D2B600192FFF785FE0028FBD10320FFF79AFEFFF776FE074600286A
:2033E000FAD1FFF79BFE04464FF00109D94515D2002C4BD01AF809202A600BF1FF329145CC
:2034000009D20120FFF782FEFFF75EFE0028FBD1FFF784FE044609F10109E7E7002C35D02F
:20342000019B1D4A1B780B205B0043F001031360FFF76CFE4FF00009731E994512D22CB3EC
:20344000FFF742FE0028FBD1FFF768FE04460028F2D02B68092008F80930FFF757FE09F178
:203460000109E9E794B1FFF72FFE0028FBD1FFF755FE58B12B68464406F8013C0520FFF751
:2034800045FEFFF729FE0028FBD10127384603B0BDE8F08F892600200028004008280040B4
:2034A0002B4B10B504461970FFF71EFE08B9FFF74BFE284B1A78A24248D0274900221C70CD
:2034C0000A6026490A601B78D3B9254C052023684FF4C0419B699847236806209B694FF44A
:2034E000C041984723681F48DB6C052106229847236808209B6B9847236809209B6B1BE039
:20350000012B1AD1164C082023684FF4C0419B699847236809209B694FF4C04198472368F2
:203520001048DB6C082109229847236805209B6B9847236806209B6B9847BDE810400A4B44
:2035400008481B6809491B680122184710BD00BF8926002092060020042800401004054267
:20356000B401001000200040AC010010006CDC0208B5064B04201B685B699847034B042055
:203580001B685B6B98470128F8D108BDB80100100749084A0B68126809688B42F8D1DB0111
:2035A000054903EB52620023C1E90023704700BF082009400C2009409806002010B5184BE9
:2035C00000200021C3E90001164C042023685B6B9847012801D0FFF7CBFF23680020DB699E
:2035E0009847114B01221A60104B1B689B07FBD50F4A104C1368204623F4807323F00103EC
:2036000013600D4B0D491B681B689847042323600B4B31221A6040F2212243F8342C10BDFA
:2036200098060020B801001028200860282008400C00014000000140C80100100021000437
:203640003C00014008B5FFF7A3FF024BD3E9000108BD00BF9806002010B50AF0C4FC034B7F
:203660001C6808B90AF0C3FC204610BD082009402DE9F0410AF0B7FC194E1A4B012400259E
:20368000194F35601C601C623B6880461B682846232198473B6820461B6824219847134AA9
:2036A000136823F4E02343F440331360104B1D6005F0A0FD0F4B00F5007018600E4B14202A
:2036C0001C600E4B34601B681B699847B8F1000F03D1BDE8F0410AF08ABCBDE8F08100BF24
:2036E00000002443800024438401001000200940082009401C200940A0022443B0010010BE
:20370000064B1868083B1B68DB0706D5044B1B681A1A30EA220028BF184670471C20094092
:2037200018200940431E012B15D810F001031CBF094A116010F0020006D0084A116023B974
:20374000074B01221A6070472BB1064B01221A600028F5D170477047182009401C20094097
:20376000A002244380022443014B1868704700BF080E002008B509F05CFC114B186009F004
:2037800048FC104B1B686BB10F4B4FF480721A6005F030FD00F2052020F4FF700B4B20F0C0
:2037A000010018600A4B1B684BB10A4B00221A60054B01221A60BDE8084001F039BE08BD44
:2037C000080E0020A0002443042009401C2009408000244380022443820742BF034B0122EF
:2037E0001A60C30701D50AF002BC7047000C084008B50AF0F8FB074B1A68012A09BF064A2B
:2038000000231A600223002814BF184643F0010008BD00BF000C084051E5CC1A034A044BC9
:203820001A600122C3F8002C704700BFFFFF0F0000000840024A034B1A600122DA60704711
:20384000FFFF0F000000084010B5FFF7D1FF0446FFF7F0FF034B01221A602046BDE8104013
:20386000FFF7BABF040100430A4B13F8012FFF2A04D1094A9342F8D1084B00E0084B19442F
:203880000138994204D001390A7800F8012FF8E7704700BFC7FF0100CFFF0100F01200501F
:2038A000C8FF010038B50C4B02201B685B699847094D02202B685B6B984701280446F7D1C9
:2038C0002B684FF40070DB699847044B1C60044B1B689B07FBD538BDB80100102820086002
:2038E0002820084008B5064B02201B685B6B9847012803BF034B186800F00100002008BD51
:20390000B80100106C20084008B5084B15201B685B699847064A136823F4FE6323F0020344
:20392000136040F2F272034B1A6008BDB0010010381000404410004037B5284CFFF7B2FF0D
:203940002368274DDB6827489847FFF7DDFF2B681D20DB6B9847244B4FF000521A602A6804
:203960004FF0FF330093156C1E481C211D22A84723681C485C681D494FF4E1326023A04718
:203980001B4B14221A601B4A1B49136843F01003136040F2011240F201330868002808BF0A
:2039A000134602F1804202F62F72136040F2F272124B1A600B687BB102F1804202F64602EC
:2039C0001368152043F0500313600D4B1B681B6903B0BDE83040184703B030BDD001001037
:2039E000B40100100010004090200240006CDC02341000402C1000400C0E002044100040A8
:203A0000B001001038B50546FFF76CFF18B11F4B1B681A07FBD4032D03D01D4B1B68002B8D
:203A200032D1FFF75FFF30B11A4B1B481B68DB689847FFF769FF194C4FF4007023681B6A5B
:203A40009847032D09D123684FF400709B6A984723684FF400701B6B9847114B01221A60BF
:203A6000104B1B689B07FBD51D2000F037FA1C2000F034FA4FF0FF3000F030FABDE8384099
:203A80004FF0FF3000F02ABA38BD00BF181000400C0E0020D001001000100040B801001094
:203AA000282008602820084010B50AF09CFA0446054800F0F7F9054B00221A601CB9BDE894
:203AC00010400AF094BA10BDE00400200C0E002010B50446FFF706FF08B9FFF72DFF044B07
:203AE0002146BDE810401B680248DB69184700BFD00100100010004008B5FFF7F3FE18B19D
:203B0000024B1868C0F3C00008BD00BF1810004008B5FFF7C7FE40F2F2710B4B0B4A1B683E
:203B2000116013F0500F0AD108BD094B09481B681B699847084B1B680BB1C0B29847074B52
:203B40001B68DB06F1D508BD4010004044100040D0010010001000400C0E0020181000407F
:203B60002DE9F0411646074688460AF03CFA474B474A00241C600123136013621364454B81
:203B800020461B683F211B6801349847042CF6D10024404B20461B683F219B68013498473F
:203BA000032CF6D13C4D2B68FFF744FE3B4809F0C0FB04462CB1A3680BB103209847246808
:203BC000F8E77B1C10D0364901230A68BB4022EA03030B60334B46F000521B6838461B6878
:203BE000214642EA080298472F4F00262F4C3E60236807209B69984700F02AFA09F053FA9D
:203C00002B4B38201A6822F003021A605A6822F4C0525A609A6822F00F029A60254B1E6012
:203C20002368254C9B699847244B26601B680120DB689847224A26603B46166090462646BF
:203C4000204A126812F02004FAD11F4A012717601E4A1F48146054601C601E4B1E4A1C60C7
:203C60002B681368032123F0030313601B4B1B685B6898471A4B3460C8F800401F602B68F0
:203C80000A4BBDE8F0411B689B6B18470000244380002443840100102C200940100E00205B
:203CA000D0200240B40100100C400940B8010010001009408001224340100940A001001026
:203CC00020042243141009408801044340012243004003400800094024220840D80100102D
:203CE00018100940034A136823F00403136030BF704700BF10ED00E070B50AF074F901F03F
:203D00003DFB18B1BDE8704009F0C6B9FFF7F8FC044609F08EF9201A202805D509F0BCF917
:203D2000BDE87040FFF7DEBF504809F002FB0446022544B1636823B19847A84228BF2846EA
:203D4000C5B22468F5E701F009FA044601F0FEF948B1FFF777FC241AFFF706FD00EB442175
:203D60000220FFF7DFFC012DD8D0404809F0E1FA0446062644B1A3680BB128469847236913
:203D8000246826EA0306F5E7FFF754FD730748BF374B06F0060548BF1C6025B1354B284610
:203DA0001B689B69984700F053F9334A00241368392023F0030313605368304E23F4C053FD
:203DC0005360936843F00F0393602D4B1C60294B1B689B6998472B4B34601B680120DB683E
:203DE0009847294B34601C60284B186810F02000FAD105F03FFD062D02D1022005F0A2FA98
:203E0000234C244D244E2B682368244823F003032360336803215B689847164B1B689B6BDF
:203E200098472B6805F0EEFD1D4B00221A6033681A4801215B6898472368012243F0030384
:203E400023600B4B1A602B6805F00CFE09F0E1F8FFF7F0FC054809F06CFA0446002C3FF474
:203E600051AFE36803B198472468F7E7100E00200C400940B801001000100940401009406C
:203E800080012243A00100102004224314100940242208402C200940D80100100040034006
:203EA000800104430146014809F061BA100E00200146014809F047BA100E002010B505487E
:203EC00009F034FABDE81040034B02201B6820211B681847100E002084010010431C10B5B9
:203EE00004460DD0074B00211B684FF4C0421B689847054901230A68A34022EA03030B60BA
:203F000010BD00BFB4010010D020024038B504460D460AF068F80123054AA3401360054B21
:203F200043F8245018B9BDE838400AF060B838BDE0200240140E00200023064A002142F88B
:203F400023100133202BF8D1034B10201B681B69184700BF140E0020B001001038B5094BFF
:203F600000241D681D600123A3402B42E0B204D0054B53F8243003B198470134202CF2D17B
:203F800038BD00BFE0200240140E002010B5074C18B9236801205B689847236840205B6804
:203FA0009847034B00221A6010BD00BFA00100100002224338B50A4C05F0A8F9236801200F
:203FC0009B689847236805461B6801209847044B01201B689B6898471128F8D1284638BD6C
:203FE000A001001013B5FFF7E5FF0446042005F07BF9032810D00420032105F04FF90420E3
:2040000005F072F90328FAD10090002105484FF040521C2305F0FEF8204602B0BDE8104044
:20402000FFF7B4BF00A00C4010B5FFF7C3FF0446012005F059F9012802D0044B9B6B9847CD
:204040002046BDE81040FFF7A1BF00BF4800001010B5FFF7AFFF00210446032005F01EF995
:20406000012005F041F910B1034B9B6B98472046BDE81040FFF78ABF48000010034A00219C
:204080001368197219711B68136070479C0E002008B506F0CFFB20B1024B5888831E584263
:2040A000584108BD580F002037B5FFF7F1FF0446E0B9104801A906F0C5FB012814D108F0A8
:2040C000B8FF05460B4B5A881C46022A04D16488A31E5C425C4107E008F0ABFF6FF03F0331
:2040E0005B1BC342EED4F2E7204600E0012003B030BD00BF580F002000B589B002A818218C
:2041000040F602020AF077F8154B02A81A689DF81A30117961F305038DF81A30517961F3BE
:2041200087138DF81A3092799DF81B3001A962F347038DF81B300B4B079301238DF8163033
:2041400006F080FB012806D102A806F0BBFB431E5842584100E0002009B05DF804FB00BF38
:20416000080500200C05002038B5084B00201D461C682379032B03D1054801F04DF9012057
:2041800024682B689C42F4D138BD00BF940E00207C06002008B50346B32994BF0A46B422EA
:2041A0000248194608F004FC012008BDA20E002070B5114B1E683379032B1AD1337A032B01
:2041C00002D8FFF75BFF14E0357AEDB22C1F8C42F7DC224606F10901073508F0E9FB715D38
:2041E000042049B289B205F0DFFEFFF747FF204670BD002070BD00BF9C0E002013B506F030
:2042000051FC044606F016FB50B1064801A906F019FB012804D1638803F44063002BFAD085
:2042200002B010BD010001040B2811D1082A11D181B1094B013913F8012C084801F8012F5F
:20424000A3F12902904203F1FF33F4D1002070470120704702207047880F0020580F00201C
:2042600007B5FFF715FFB8B108F05AFF0028FBD10B4801A906F0E6FAFFF70AFF0028FBD104
:2042800042F20242074B5B88934205D042F207401B1A5842584100E0012003B05DF804FBDC
:2042A00001000104580F002010B506F09FFC012814D008F035FF04460028FAD1FFF7D0FFE0
:2042C00006F0F6FBFFF7C4FE054B5C80054B1C71054B1C71054B1C71054B1C71012010BDB1
:2042E000580F002064100020D80F0020F01000207C11002038B508F0EEFE06F077FC01286C
:2043000001D1012038BDFFF7C3FE0028F9D109F081FF012801D0002038BD144A144B5179FD
:204320005D7960F383015171124960F38305842419605D711360DC800F4B4D791A60D4802C
:204340005A7960F3830560F383020B604D71CC805A71DC8006F05EFBFFF766FEFFF7CCFED2
:204360000128D8D1BDE83840FFF79EBE64100020D80F0020F01000207C11002073B50C461A
:20438000072800F28580DFE800F0040F1A1D20833868012905D1FFF7ADFF01287AD003207B
:2043A0007DE0002978D170E0A1F10B030F2B73D83C4BCCB29A7BA2426CD09C734FE0394BBD
:2043C00059864CE0374B198649E031F0030563D1344AC1F34004137E61F30003DBB243F00D
:2043E000020364F3820303F0870365F3C7131376537E65F3C713537631E001F115031A2B78
:204400004AD80C26284BF20053F836101D468C4203DC1344254A136002E016F1FF36F1D228
:2044200006F008FA00283AD01023ADF8043005EBC6031A79597902F03F0261F387128DF883
:2044400006204FF000029B7901A863F3470269468DF8072006F0F6F91CE0124B1977FFF77A
:2044600017FE28B9FFF746FF012898D1054600E00025FFF7F5FE012814BF03240024FFF703
:2044800013FE012818BF032445B1FFF70DFF05E0012004E0002002E0022000E0204602B0E6
:2044A00070BD00BF580F002038E500000805002073B50C46002967D0102867D8DFE800F037
:2044C000091015181B662D3135666666665B5D5F6200FFF7DDFD003018BF0120206002E017
:2044E0002D4B9B7B2360002053E02B4B5B8EF9E7294B1B8EF6E7284B002008601A7E02F09A
:2045000001020A60197E01F0040101F0FF0300293ED042F0020222603BE0204B1B681B6833
:20452000E0E71D4B93F91C30DCE7FFF7B1FD28B9FFF7E0FE012816D1064600E000260023D3
:20454000019340F2034301A86946ADF8043006F079F901280CBF9DF8025080250EB1FFF781
:20456000A3FE6BB201E06FF07F03236080330CBF032000200DE00B23B4E71A23B2E76FF08C
:204580001403AFE70523ADE7022002E0012000E0184602B070BD00BF580F002008050020FD
:2045A00070B588B00446FFF773FD28B9FFF7A2FE012842D1054600E0002508F03AFD064670
:2045C00008F0AEFD01280AD108F033FD6FF01F039B1BC342F4D425B1FFF766FE01E010B136
:2045E000F9E702202CE0182102A842F6014209F002FE144B0120E4B28DF81740069306F0D5
:2046000037FA02A801A906F01DF908B901240EE0BDF80A3003F4406313B9FFF763FBF7E7AE
:20462000BDF80A40A0B2B0F5105418BF012406F031FA25B1FFF738FE01E0012000E02046B9
:2046400008B070BDA20E00200B2810B51ED1082A1ED1E9B10F4A01F1080313F8010D8B42C7
:2046600002F8010FF9D1FFF713FD28B9FFF742FE012809D1044600E00024FFF7F1FDFFF71E
:2046800013FD0CB1FFF710FE032010BD012010BD022010BD7F0F002070B5264C2648FFF7D3
:2046A00001FC06F07BF9204600218C2208F05AFA00218C22214808F055FA00218C2220485C
:2046C00008F050FA00218C221E4808F04BFA1E4E1E4B34601C601E4C00252046294680223B
:2046E000756008F03FFA42F601030F22A2733922E273184A2380626107222276FF22A276C0
:204700007B220123E276A622637326616376227784F83730FFF7EEFD0128044607D10E4884
:2047200006F022FA0D48294600F05EFE00E02C46204670BD64100020F4040020D80F0020BF
:20474000F01000207C110020940E00209C0E0020580F00208A260020D8E500007C0600204A
:204760000FB407B504AA52F8041B0448019200F035F803B05DF804EB04B0704738050020E8
:204780001FB5084C8DE80300114602A81A460294CDF80CD000F022F8009B00221A7004B0DC
:2047A00010BD00BF3FD2000070B505460C46102C07D92B68686808491022984750B9103C64
:2047C000F5E734B12B6868682246BDE8704002491847204670BD00BF5AEB00002DE9F04F62
:2047E00080468FB0069107920026069B1B78002B00F05F83069B1C4613F8012B1AB9069B7F
:204800009C4203D10FE0252AF5D1F8E7069BD8F80400E51A0699D8F800302A469847002879
:2048200040F02A832E442378002B00F042836378611C002B00F03D8300240A4611F8013BC2
:204840002B2B11D006D8202B11D0232B12D144F00804F2E72D2B04D0302B0BD144F0100422
:20486000EBE744F00104E8E744F00604E5E744F00204E2E7A3F1310108290DD813460025F7
:204880001A4613F8011BA1F13000092811D80A2202FB0515303DF3E72A2B09D1079B013227
:2048A0001D68191D002D0791B8BF44F0010400E0002513782E2B1CD15178531CA1F13000F8
:2048C00009280ED8194600270A780B46A2F13000092801F101010FD80A2303FB0727303FD1
:2048E000F2E72A2906D1931C079A111D0791176802E013464FF0FF371A786C2A09D15A789C
:204900006C2A02D144F080040AE0013344F060040BE0682A09D15A78682A03D144F02004D9
:20492000023302E0013344F040041A78642A3CD01FD8462A48D00DD8252A5AD003D8002AA6
:2049400000F0B78257E0412A4AD0452A53D144F4424450E0582A31D004D8472A4BD144F4CD
:20496000A13448E0612A38D0632A44D144F4A06441E06E2A3AD007D8662A22D027D3672A1A
:2049800028D0692A11D036E0732A2CD006D86F2A11D0702A2FD144F440742CE0752A07D09C
:2049A000782A28D144F4C85425E044F4245422E044F410641FE044F488541CE044F4B24468
:2049C00019E044F4007416E044F4844413E044F4024410E044F481340DE044F4C1340AE0EA
:2049E00044F4E13407E044F4806404E044F4E06401E044F4C0640133069304F4E063B3F51A
:204A0000806F00F0AA8116D8B3F5807F2BD0B3F5407F7FF4EAAE079BA04914F4804F03F134
:204A200004029F4818BF08460DF1330107920F461A680023C5E1B3F5C06F08D0B3F5E06F53
:204A400000F03182B3F5A06F7FF4CFAE00E2D8F80030D8F80400934901229847002840F020
:204A60000B820136C1E6002FACBF24F01004012714F40053039304F0E00337D0402B17D0C0
:204A800008D8DBB1202B2AD1079B1A1D079293F9002017E0602B11D0802B20D1079B07336B
:204AA00023F0070303F108020792D3E900230AE0079B1A1D0792B3F9002003E0079B1A1D7F
:204AC00007921A68D317002A73F1000109DA524263EB4303CDE900234FF0010933E00022E0
:204AE0000023CDE900234FF000092CE0402B16D007D8CBB1202B20D1079B1A1D07921A787A
:204B0000EEE7602B10D0802B17D1079B073323F0070303F108020792D3E90023E1E7079BE9
:204B20001A1D07921A88DBE7079B00211A1D07921B681846CDE90001D5E700220023CDE95F
:204B400000234FF0000904F4C053B3F5805F0CD0B3F5C05F33D0B3F5006F4FD1DDE9002392
:204B60000DF1360ACDE9042304E0DDE900230DF1360A15E0DDE9042313433AD0DDE9040102
:204B80000A22002307F004FCDDE9040130320AF8012D00230A2207F0FBFBCDE90401E9E7AB
:204BA00052EA030125D002F0070130310AF8011DD10841EA4371D8080A460346F0E7384BBA
:204BC00014F4804F0DF1360A344908BF1946DDE9002352EA03000CD002F00F00085C4FEA7B
:204BE000131E0AF8010D100940EA037002467346EFE70DF1360BCAEB0B0B03E00DF1360ABC
:204C00004FF0000B41F6080241F208035F4502EA04028CBFCBEB070700279A4202D1002F21
:204C200008BF012741F608018A4207EB0B030DD1DDE9000150EA010208D01B4914F4804F84
:204C40001A4A4FF0020C18BF0A4602E04FF0000C62460399A1B1B9F1000F0AD104F006012A
:204C600002290AD00629124904BF4FF0010C0A4606E04FF0010C0F4A02E00F4A4FF0010C34
:204C800063449D428CBFED1A002514F0010922D1E30613D52F444D461DE000BF27EB000071
:204CA00038EB000058EB00004CEB000049EB00004FEB000087E60000A4E8000040462946FB
:204CC000CDF80CC00092FFF76FFD009ADDF80CC0002840F0D180BCF1000F0DD01146D8F8AB
:204CE00000306246D8F80400CDF800C09847DDF800C0002840F0C0803C465E44102CD8F847
:204D000000300DD9D8F804006C491022CDF800C09847002840F0B080103CDDF800C0EDE721
:204D20005CB1D8F8040065492246CDF800C09847DDF800C0002840F09F80D8F80030D8F83C
:204D4000040051465A4666449847002840F094803E44B9F1000F79D073E0079BD3F800A03F
:204D60001A1D0792BAF1000F09D05346994699F800200133002AF9D1CAEB090903E0DFF8FE
:204D800040A14FF00609002F02DBB94528BFB9464D458CBFC9EB0505002514F0010405D155
:204DA00040462946FFF700FD002865D1D8F80030D8F8040051464A46984700285CD14E44EC
:204DC0003EE052EA030E0ED002F00F0E10F80EE04FEA131C01F801ED4FEA121E4EEA037E14
:204DE00072466346EDE70B467F1A01BF3022012701F1FF3301F8012C03377822BD4203F842
:204E0000012C4FF0300203F8022C88BFED1B4FF0230298BF002514F00104A3F1030903F8F8
:204E2000032C04D140462946FFF7BEFC20BBD8F80030D8F8040049463A469847E0B93E4411
:204E400024B140462946FFF7AFFCA8B92E44CCE4079B012D03F104021B688CBF05F1FF35A2
:204E6000002514F0010407928DF8203008D140462946FFF799FC10B14FF0FF301AE02E44A2
:204E8000D8F80030D8F8040008A9012298470028F2D16F1C2CB140462946FFF785FC0028A4
:204EA000EAD13E44A1E4079B1A1D1B6807921E609BE430460FB0BDE8F08F00BF6AEB0000D1
:204EC00051EB0000F8B50388064615462BB14A2B15D0002303800320F8BD174808F029FA89
:204EE00004462CB1201DA16808F0D5F92468F8E7124B01221A704A2333800120F8BD882963
:204F0000FBD10D4808F015FA0446002CF3D0231D9D420ED10848214608F015FA084B626956
:204F20001F681A60A2691D460AB1E06990472F60E1E72468E9E700BF081200209A2600209B
:204F40001812002010B5064B002406481C7008F0EDF92146BDE81040034800F045BA00BFC0
:204F60009A260020081200204005002070B50446E3610B4B049D1B786561A26143B1094D62
:204F8000094B2E68201D2B6008F085F92E6000E0A1602146BDE87040044808F0E8B900BF1A
:204FA0009A26002018120020400500200812002013B5034C24680094FFF7D8FF02B010BDA5
:204FC0001812002070B5094B05461B783BB1084C084B26680430236008F066F9266029460C
:204FE000BDE87040044808F0C2B900BF9A26002018120020400500200812002010B5084BFD
:2050000004461B781BB1043000F0B2F801E0C36003612146BDE81040024808F094B900BF07
:205020009A2600200812002010B50E4C236813B90D4A136010BDFEF705FB216891E80C0046
:205040001A44131A8A6842B192E812002144091A8B4228BF0B469268F5E71844024B1860D0
:2050600010BD00BF0C12002010120020014800F0D3B900BF50050020F8B5038805462BB1CC
:20508000592B09D0002303800320F8BD1E4A136059232B800120F8BD872920D08229F7D14A
:2050A000194F00263C68002CF2D0204608F030F990B1E0688821224600F06AF950B9E06013
:2050C000A3680EB1B36000E03B600023A360FFF7ABFFE5E7FFF7CAFF2646A468E3E70A4992
:2050E0000B680BB90B60D3E7D868904201D19B68F7E70B6099680029CAD0C86890420ABF95
:2051000089680B469960F5E70C12002010B50446FFF7ACFFE3680B4A4BB113683BB1A342A2
:2051200003D1094A1268DA6007E09B68F6E7064B1B68E36013681460A360BDE81040FFF7D9
:2051400073BF00BF0C12002018120020024B1868003018BF012070470C120020024B18681F
:2051600008B1024B186870470C1200201012002010B50B4A04461368984206D18368136084
:2051800008E09A68A24203D01346002BF9D103E0A2689A60FFF748FF0023A360E36010BDC6
:2051A0000C12002038B5836804460D469BB10A4804600220A07304F10C00984702380128C2
:2051C00001D9832D05D120462146BDE8384000F005B80123A37338BD181200202DE9F8430E
:2051E0001C4A0446156889462B4690461A4E3768A34204D00BB11B68FAE7BDE8F88334B385
:20520000A37BABB10023A37345B1AC4204D028468721224608F062F82D68F5E7A3683BB1EB
:205220004C4505D0346004F10C0083212A469847D8F800309C4203D12268064B05E01346B5
:2052400023B11A68A242FAD122681A603760BDE8F88300BF1C1200201812002010B5094B1E
:2052600000221A70084B1C685CB1E37B3BB101230022A373E27320468221FFF793FF246886
:20528000F2E710BD9F2600201C120020024B1878421C1A70704700BFA0260020064B8A2217
:2052A0001A70064A00231370054A1370054A1360054A1360704700BFA02600209B260020DB
:2052C0009D2600201C120020181200202DE9F041214E33780BB1FFF7C1FF204D2C78002C43
:2052E00034D0DFF88CE00C229EF800301C495A4388181C4F895CDFF87C804268DFF878C0F5
:205300008068013303F01F03013C3970C8F80020CCF800008EF800302C7088B9124C134B83
:205320001B68236023688BB133780BB1FFF796FF20683978D8F8002007F0D0FF2368EFE75E
:20534000812904BF0123837307F0C8FF337828781844BDE8F08100BF9F2600209D260020C4
:20536000201200209C260020141200201C1200209B260020A0130020A4130020024A034B40
:2053800010781B78184470479D2600209F260020F0B50C4E3478202C11D00B4B0B4D1B78FE
:2053A0000B4F234403F01F032B700C256B430134FD18A860F9546A6034700020F0BD0120A2
:2053C000F0BD00BF9D2600209B2600209E2600202012002038B5034C256807F07FFF2560A4
:2053E00038BD00BF1812002010B50A4609490C68234683420DD00BB11B68FAE748B104604C
:2054000008600121817383818121BDE81040FFF7E1BF10BD1C12002038B1837B013B012B73
:205420009FBF024A0123C373137070479F26002010B5084C206858B1002323608168436865
:205440009847236823B1BDE81040186807F0EDBD10BD00BFA813002038B505880446672D39
:2054600009D0792D2ED0002D32D1FFF70FFF1B4B18701B4B1D601B4807F0FFFF431C01D121
:2054800067231DE00A28164B07D01A687E2AF2DC511C1960144B9854EDE7196800254A1C12
:2054A0001A60114A0D4B555428461978FFF770FF0E4B852118682A46FFF76AFF20B97923EF
:2054C000238009E0852907D1054B00221A60D2E700230380032038BD012038BD9836002053
:2054E000B4130020AC130020212700201812002008B505480549802207F0B8FFBDE808409F
:2055000003480021FFF770BFAC130020A1260020600500200C4AB82303FB0022002330B556
:2055200053821A46094CE1188D782DB11C5D844202BF00248C70013240F24C5171338B4272
:20554000F0D1104630BD00BFD4130020AC27002008B5064802F04CFA054B01221A7000222C
:205560005A70AA229A70DA7008BD00BFB9570000A227002010B50F4C0220A17904F014FD63
:20558000A379112B01D0062B05D1238D618D9942A8BF194608E03A2B05BF94F8281094F83B
:2055A0002930002143EA01210120BDE8104004F0FBBC00BF402E002010B513780446087AF8
:2055C00083F0020398421DD1487A5378984219D1887A9378984215D1C87AD378984211D124
:2055E000087B137998420DD1487B5379984209D1887B9379984205D1C87BD379984201D1A7
:2056000003201BE00B890F4A6BB94B89B3F57F4F09D18B89FE2B06D11368C989022023F819
:20562000021B13600AE0136851F8080F083343F8080C486843F8040C13600120A040C0B2AA
:2056400010BD00BFC013002010B5084C01462378012B08D1A01C082207F078F900280CBF8A
:205660002046002010BD002010BD00BFA227002008B50146102004F0A5FC044B04489B68DB
:2056800000219847BDE80840FEF7D4B834E600009556000010B508460C46114601F038FDB5
:2056A000044B1B6813B19B6820469847024B1C6010BD00BFD0130020CC130020F8B50546BD
:2056C0000023114A712404FB0324A278B2B9617004F0BAFB26460D4F0D4A3B7806F8035B64
:2056E000C01A1568A0701D4404F0AEFB3A782946821A304607F05CF9A078F8BD01330C2B8E
:20570000DFD14FF0FF30F8BDAC270020F82C0020C41300202DE9F8434FEA1219B9F10F0F0B
:2057200080461D4602F00F040BD00F2C05D1B9F1000F0AD11024274619E0B9F1000F09D08F
:2057400004E00F2C4FF0100900D1102440464A4607F02EF909EB04020F2A274606DC08EB24
:2057600009000021C2F1100207F0FCF9BCB1114DC7F110002E6840443146224607F018F9BA
:20578000022C08D1B9F10A0F9FBFFF2388F80B30FE2388F80C3034442C60BDE8F883B9F159
:2057A000000F05D040462946BDE8F84307F0C9BEBDE8F883C01300202DE9F04F904F914E8C
:2057C000002387B03B703370044604F08BFB04F027FB8D4D04212860092004F0E5FB8B4BED
:2057E0008DE8C0001B68A9460BB1FFF7C3FE04A80CB9874900E0214608F001FC854B864E6E
:205800001A8803933E2A40F20182D9F800B0834D0BF102032B60009B06F1180093F80080A1
:20582000002308F102080BF80830FFF70DFF20B906F10800FFF708FF20B10BF103032B60D2
:20584000802400E0044672783178130943EA0113DBB2980840EA8313DBB212F00F0FDEB260
:205860006E4F01F00F010CD16B48408848B911B912F0F00F1FD03B6803F8016B3B6070261C
:205880001AE079B912F0F00F0CD1296823F03F031A43634B0A701B88033121F8023C6826D7
:2058A000296009E05C4A2B681068186003F8046B2B60602600E07826574B9A790293112ACF
:2058C00008BF46F0040673075EBF3B6803F8012B3B60029BDB79402B06D0FF2B07D0012B66
:2058E00008D146F0010609E046F0020606E046F0030603E03A6802F8013B3A60029A464BC4
:20590000128982B95A8972B99A8962B9DA8952B91A8A42B95A8A32B99A8A22B9DB8A13B959
:2059200044F0400013E03F48FFF78EFE3E4B186078B142781BF80830042043EA02130BF85F
:2059400008303849394AFFF737FE60F03F00C4B227E0029B30491A8948F2FE039A420CD127
:205960004B8B53B98B8B43B9CB8B33B9042008312E4AFFF721FE2043E9E73A68DFF8A4C0F7
:2059800096460CF1100A634603CB5345CEF80000CEF804109C460EF1080EF4D11F4B1032FD
:2059A0001A60DFF874A09AF81830FF2B40F08A809AF8192044F0080E022A5FFA8EFE37D116
:2059C000BAF81A30A3BBBAF81C308BBBBAF81E3073BBBAF820305BBBBAF8223043BBBAF82F
:2059E00024302BBB9AF8263013BB3B689AF8272044F00B0003F8012BC4B23B609FE000BF86
:205A0000A1270020F82C0020C4130020D01300200BEC0000302E0020402E0020C01300206A
:205A2000422E0020482E0020B8130020382E00209B4B588B194688BB988B78BBD88BA8B94A
:205A4000188C98B9588C88B993F8240070B9296844F00A00C4B2084600F8012B33F8252F1E
:205A6000043121F8032C9B78837015E0C98B8C4BA1B9198C91B993F8221079B9296844F086
:205A80000900C4B2084600F8012B53F8232F063141F8052C1B790371296050E0814ADFF874
:205AA00018C214680CF110082746634603CB4345386079609C4607F10807F6D11034146036
:205AC00074463CE00AF11800FFF7BEFD764B186050B143781BF8081044F004040B43E4B2EC
:205AE0000BF8083000200EE048F2FE03BAF818209A4210D1BAF81A306BB9BAF81C3053B951
:205B0000BAF81E303BB90AF1180104AAFFF754FD2043C4B213E0634ADFF89CC117680CF15F
:205B20001008BE46634603CB4345CEF80000CEF804109C460EF1080EF4D110371760019A95
:205B40005749282313708B79112B53D14FF2B0030A8D52BA92B222F00F0080B2984217D183
:205B60004B8D5BBA23F00F031B041B0C83420FD12868F32303704B8D02301A0A0B8D1B0A24
:205B800002EB031303F5AA6300F8013C286028E0029B43495B8D5BBA03F47F43B3F5704FF2
:205BA00009D12B68F1221A700A8DA3F801204A8D120ADA700CE002F47F42B2F5704F2B68AF
:205BC00008D1F2221A700A8D120A5A704A8D5A80043305E0F0221A70886A053343F8040CF3
:205BE0002B60324B1A882B6823F8022B019A2B6030231370009BD9F800201B78D654134484
:205C00005C70284B1B689B1A009A1AE0D9F8002041231370009B06F128051C78631CDBB242
:205C20001344324603CAAA4218605960164603F10803F6D1009B29341C70019B019A1B783B
:205C40002833102013700DEB000104F0BBF9184BDFF868801B68984730EA200028BF1520BB
:205C6000039BC0F17D051C88019BDFF854A01E78009BA21B93F800B00E4FCBEB05039A4228
:205C800040F3CD80C0F17803019304F0C5F9019B94FBF3F40134A04214DC0020D1E000BF69
:205CA000402E0020C0130020B81300206E2E0020ECE50000F82C0020582E0020302E002083
:205CC000A1270020D9F800B05F4B3C7800221A60594622460BF10400039306F0DFFEB8F841
:205CE00000205A496FEA82426FEA9242C2F307228BF80020B8F8002004348BF801200A88D8
:205D0000E4B2501C0880110ADFF850C18BF802102D1B9AF8001025F007054D4E61448BF893
:205D200003200BEB04002A46CDF808C03C70356006F03EFE281980B204F06CF804F072F9AC
:205D4000039B04461D460028A7D00DF1100B5846FFF78EFC204604F09DF9204604F084F95B
:205D60002B68012B99D0043B012B96D99AF800A0336853441FFA83FA05233B70354B1A6852
:205D8000B8F800306FEAC3436FEAD343C3F307231370B8F800305370019B23F007073760FB
:205DA0002D4B1B889A454BD2D9F800204FEADA0111713268CAEB03039342B8BF244AD9F865
:205DC0000000B8BF1360009B376893F80080029B3A4603EB0A01404406F0EAFD08EB070023
:205DE00080B204F017F804F01DF9074600283FF454AF5846FFF73CFC384604F04BF93846B9
:205E000004F032F9124B1B689A442B681FFA8AFA012B3FF442AF043B012BC1D83DE7D9F82C
:205E200000000E495844314406F0C2FDB8F800005844801B80B203F0EDFF04A8FFF718FC97
:205E4000012007B0BDE8F08FCC130020AA200020C8130020C4130020302E0020402E00205F
:205E60002DE9F047074688461646002A47D0434C0025A146238ABB4215D1638A9BB10F208A
:205E800004F0ACF80146204608F0BEF858B1ECB220463146FFF712FC002827DA0027DFF860
:205EA000E0A0B8460DE0B834002D5DD10125E1E7A8450BD10AF1B80AB8F1000F10D14FF0E4
:205EC00001083AF8063C002BF4D0F1E7504607F01FFA0028EED04046FFF71CFB0744E9E744
:205EE000002F41DD20463146FFF7E8FB00283BDDB82303FB0595AB8A1844A8823AE0204DAA
:205F0000FF2435F8063C4FFA84F97BB3284607F0FFF910B13046FFF7FDFAB9F1FF3F03D1BE
:205F200035F8063C03B9F4B2012E05F1B80501D00126E6E765B26B1C16D0B8235D43DFF813
:205F40003C900F2009EB0506A6F81280378204F045F80146304608F052F805F11800484494
:205F6000402107F0C3F905E0FF2403E0B9F1FF3FDAD1D8E760B2BDE8F08700BFD4130020DC
:205F8000EC1300202DE9F04FA44CDFF8C8A287B000268AF80060267003F042FFA04DA04680
:205FA0002860042004F008F89E4B2A6800B218605778137847EA032703F0F803C02B02D03C
:205FC000E02B19D03AE090782378D278C7F30A07043342EA0020394632462370FFF740FFB9
:205FE000B0F1FF3F814600F080828F4CB82303FB00440126223424E01379D1789078227819
:20600000C7F30A070532227041EA00201A4639460093FFF725FFB0F1FF3F814600F0658298
:206020008149B82202FB0012958A4FF0010BBD4234BF002501253446009BE0E1B1464F46A4
:206040007A4C296898F800504A5D02F0E003602B40F0B781A81C084429444D78744B5FFA40
:2060600085FC1CF0800F18601CBF0130186012F0100F02F0080130D1D1B9196831F8010FA7
:20608000A4F801008978E170196811F8040B1960830803F00F0141F060012170617803F082
:2060A000300343EA801301F00F010B43637030E018686021864621701EF8011B03304FEABF
:2060C000910B0BF0300B01F00F014BEA01016170BEF80010186061801BE001F0FF0E99B97B
:2060E00019680878C0F3830040F06000207011F801BBA4F802E04FEA9B0000F0300040EAE8
:206100008B106070196004E06023237000236370638002F0040303F0FF0100912BB94449DA
:206120000B6813F8010BA0710B6012F003020BBF3F4A404B13689B5C09BF13F8011BE371BF
:206140001360E1716B06C5F3011233D51CF0800F1DBF334998F80030096800211EBF5B18A1
:206160009978090922B904F1080B9AB9114614E0314B1878012805D1587888420CBF1946AC
:20618000002100E000212D4B19600029EBD1B3460D4633E1294B19680231294B0F209A5CE6
:2061A0000391CDF808C0019203F018FF0399034658460BE0234B0F209A5CCDF808C0019200
:2061C00003F00CFF2049034604F10800019AFFF7A1FA05F00800DDF808C005F0030200F062
:2061E000FF0105F00403002836D0002B6CD1174B1B88ADF81430531E012B9FBF0C490B685C
:2062000013F8010B0B60124B98BF8DF815009A5C04F1180005A9002354E000BFF82C0020A3
:20622000C4130020BC130020D4130020402E0020C0130020A5EB0000A2270020B81300208C
:20624000BEEB0000A9EB0000ADEB0000A3EB0000AFEB0000A127002053B31CF0800F1DBFDC
:20626000A34998F8003009680B4618BF5B18A14918BF9D78087818BF05F00F03012805D133
:206280004D789D420CBF0D46002500E000259A4B1D60002D00F0AE80984B10209A5C0192C9
:2062A00003F09CFEA91C0346019A04F1180009E0934B10209D5C03F091FE2A469149034696
:2062C00004F11800FFF726FA9AF800008E4900F128038AF80030009B002B53D00B681A7876
:2062E00002F0F802F02A4DD11122A2711A7802F0040502F0F302F03AEDB2032A7CD8DFE8AF
:2063000002F0020A1622B3F801200533228533F8022C62852CE0B3F801202285DA78A2F5F4
:20632000805292B2120242F0F002628509E05A78A2F5805292B2120242F0F00222855A88FF
:206340006285043314E05A7802331209A2F5756292B2120242F0F002228513F8012C02F04E
:206360000F02A2F5756292B2120242F0F00262850B6025B90B6833F8022BE2850B603030F5
:206380008AF800005A4A0B6812689B1A88F8003067B903F059FD5D4B1B78C01A9AF8003045
:2063A0001844283803122371607104E0A7F128031A1222716371A379112B1DD1A388A385D4
:2063C0001AE0412A40F091806A1CD2B28B18224603F1280153F8040B8B4242F8040BF9D1AB
:2063E00005F1290388F800309AF8003028338AF8003001E0B34601E0B34600252B4600931F
:2064000003F022FD98F8002082426ED803F01CFD3E4A009B12789AF800A0DB009BB2C2EBF0
:20642000000853443A494344B3F57A7FC1F800805BD83CB12E4B04EB0A00196811444246E9
:2064400006F0B6FA002F39D056B132484FFA89F3B82404FB030308EB0A0189B29982198446
:2064600095B3B8224FFA89F402FB04F329492A48CA18114697822231128C06F099FA274D1C
:2064800005F24C5615F8012C5AB115F8033CA34207D115F8020C204B294603EBC00006F07C
:2064A00087FA7135B542EDD15FFA89F0FFF732F8BBF1000F0BD01A4B1F800CE0BBF1000FCD
:2064C00005D0002DF7D110E0BBF1000F0DD1144BD044A3F80080134C236823B1FFF74AF8E5
:2064E00023685B68984701F0A9FA07B0BDE8F08FC4130020A2270020B8130020BEEB00008C
:20650000A9EB0000ADEB0000C0130020F82C0020C8130020D4130020402E0020AF27002092
:20652000302E0020D013002037B5124B124D1C782B796A79C4EB032313449BB2ADF80630C3
:20654000BDF8063005F108011844202280B206F0A4FFBDF8062004F12801294492B206F048
:206560009CFF10B140BA80B201E04FF6FF7003B030BD00BFF92C0020402E002028492DE945
:20658000F04188460D78274E2835AB195C782648E400073402239C423DDBE9187218715C0D
:2065A000204F012932D002D3632902D013E001332FE0037018461C4C01F06CFED8B998F822
:2065C00000302278283313443B445B78134402332370BDE8F08101F0C001802905D0C0299F
:2065E00005D0402912D1037005E0037006E03A7E0370FF2A02D10120BDE8F0810420022124
:20660000EA1801F0F5F80220BDE8F081527802321344DBB2BFE703700020BDE8F08100BF72
:20662000F92C0020402E0020FB2C002008B500F089FC01F0C7F906F0BBFF084B4FF4806235
:206640001A800023064A002102EB43120133DBB20A2B1182F6D1034A137008BDAC200020F9
:2066600048320020FC2C00202DE9F041124F3D7805B3DFF84C8005F12703B8F80040A3428B
:2066800003DB0023A8F8003013E00C4EA4F1280205F12801641BA4B206F128003144521B28
:2066A00006F0FCF9A8F80040283C23123371747100233B70BDE8F081F92C0020402E002036
:2066C000302E00202DE9F041034626480288013292B2B2F5FA4F28BF4FF4805200240A2CF7
:2066E0000AD0214D05EB44152E8A55BAADB2AE4204F10104F3D1EAE7DFF874E00280002295
:206700000A2A18D0184E55017419B4F81080571CFFB2B8F1000F0CD18EF80020028861820C
:2067200052BA228263B920461946102206F01AFA11E03A46E4E78EF800200020BDE8F08174
:20674000274603F1100E3A4618685968083303C273451746F7D1054B35441B7920462B75B9
:20676000BDE8F081AC2000204832002090330020FC2C002004282DE9F84F944E00F0C981AD
:20678000934C944B9449052823600B602746884612D1924A1268128A002A00F0FA810C3B57
:2067A00023600B608E4B00228E481A808E4B0260328008221A70AAE113F83C2CA3F13C040D
:2067C00002F0F002602A40F0E48122796179120230885518854200F3DC8128310A44328098
:2067E000227AFF2A00F0D581804A363B1360804D804B002129701970A17992469946B9B9C2
:20680000012389F80030FFF7B9FE012800F0C18103D3022800F0B8810AE02B7803F12802C7
:206820002244CAF800205278083303EBC2032B70714800F023FA002840F091806E4800F0E8
:20684000C3FA002840F08B80227E6C4BFF2A46D048F2FE00198B814241D0198981423ED05F
:2068600071B9598961B9998951B9D98941B91B8A33B9618A614B19B9998A09B9DB8A73B300
:20688000218B5E4B79B9598B69B9998B59B9D98B49B9198C39B9598C29B9998C19B9DB8C13
:2068A000B3F5807F1BD03388B3F5A06F04D9022000214FF4A06206E0E379504D012B05D887
:2068C00000210A46032000F093FF5DE101F06CFD002840F05E81EB79013BEB7154E148F268
:2068E000FE032189994240F05481218B434B81B9598B71B9998B61B9D98B51B9198C41B940
:20690000598C31B9998C21B9DB8CB3F5807F00F04081FF2A00F03D81374800F08FF90246D4
