:020000040000FA
:2000000000500020050F0000B9D70000ED0E0000BBD70000BBD70000BBD70000000000001B
:20002000000000000000000000000000BBD70000BBD7000000000000BBD70000BBD7000078
:2000400011460000BBD7000029B20000BBD70000293E0000C5410000BBD70000BBD70000B9
:20006000BBD7000049B20000BBD70000BBD70000BBD70000BBD70000BBD70000BBD7000087
:20008000BBD70000BBD70000BBD70000BBD70000BBD70000BBD70000BBD70000BBD70000D0
:2000A000BBD70000BBD70000BBD70000BBD70000BBD70000BBD70000BBD70000BBD70000B0
:2000C000BBD70000BBD70000F7B5254B1B689B073DD50020452103F03DFD01200DF10601D0
:2000E00002220EF032FF70B300200DF1060102220EF02BFF38B3BDF8064064BAADF804402C
:20010000A4B2200B0BF0BAFE0BF05CFA0646C4F30B000F460BF0C2FE0FA3D3E90023044661
:200120000D46304639460BF01FFF02460B46204629460BF019FF0CF0B1F90A490CF00CFBE1
:200140000CF05AFC05E001A802210EF00BFF4FF0004003B0F0BD00BF7B14AE47E17A843F54
:20016000D40E00200000C84208B51D4A03461268032A2BD1421E012A28D81A4A1A49012BE5
:200180001288088810D110B20BF088FE0022174B0BF0EAFE10A3D3E900230BF0E5FE002218
:2001A000134B0BF02DFD09E00BF068FE00220F4B0BF0DAFE00220F4B0BF0D6FE0CF06EF975
:2001C0000D490CF0C9FA0CF017FC08BD4FF0004008BD00BFAFF300800000000000A06440CD
:2001E000F80E0020D0210020D22100200000F03E00004440000059400000C8420000000060
:2002000070B5514B04461B68002B00F096804F48002106220DF04EF814F0380F3ED00DF0A6
:20022000D4FD4B4B1D46186002F0DAFF28B1494B1B78D90740F1818008E00DF0C6FD2A6865
:200240006FF009039B1AC342EED4F0E73F4D0120682103F07FFC29463B2006220EF075FED9
:2002600006460020014603F075FC36B103F0AEF8202C07D1B5F900000DE0284606210EF095
:2002800071FE5AE0102C02D1B5F9020003E0082C4CD1B5F9040002F047FF48E062074CD02B
:2002A0000DF093FD2A4B1D46186002F099FF20B1284B1B78DB0740D508E00DF086FD2A680F
:2002C0006FF009039B1AC342EFD4F1E70120682103F040FC43201D4906220EF036FE1B4DFA
:2002E000064610B103F072F803E0284606210EF039FE0020014603F02DFCF6B1042C02D1BA
:20030000B5F9000008E0022C02D1B5F9020003E0012C0BD1B5F904000BF0C0FD08A3D3E9D9
:2003200000230BF04BFF0CF0B9F800E000200A490CF012FA0CF060FB70BD4FF0004070BD1D
:2003400000000000006060401C0F0020D8210020602F0020B82700200000C8420000000081
:200360002DE9F04F144623F00047024657EA04000E468FB01D469C46214634D06E4B26F0D5
:20038000004A9A459346B14626DC24D09F4223DC694B9F4200F08F80B9F1000FC0F28F8080
:2003A0004FF0000879BB644B9F4200F0A580634B9F4267D0BCF1804F00F0E283604B9C45FA
:2003C00021D1B9F1000F1EDB104631460FB0BDE8F04F0BF077BA62B10AF1404000F58010CA
:2003E00050EA0B0007D10346544918460FB0BDE8F08F5745CCDD53480FB0BDE8F04F0BF03B
:200400005FBB4FF0000810463146CDF808C000920BF01EFB009ADDF808C0BBF1000F20D099
:200420004FEAD97909F1FF3958EA09037AD0464B9F4240F38F8003F104739F4240F31084A0
:20044000424B9A4540F39283BCF1000F40F3928337A1D1E900010B4602460BF085FD0346F2
:20046000C3E7BAF1000F04D0344B29F0404E9E45D6D1BCF1000FC0F2B683B9F1000F08DB51
:200480000346B2E7BCF1000FC0F2528413463146ABE70AF1404A0AF5801A58EA0A0340F037
:2004A0005E8402460B460BF0ABFB0B4602460BF085FE034699E700293FF46EAF8CE7244BE5
:2004C0009F422CDCA3F154739F427FF769AF40F213403B15834240F34B84C3F586630333F6
:2004E00021FA03F000FA03F38B427FF459AF00F00100C0F1020855E70AF1404303F58013C5
:2005000053EA0B0300F03983104B9A4540F36483BCF1000FC0F22E832346294665E74FF00E
:2005200002083FE7104631463346BCE7AFF300809C7500883CE4377E0000F07F0000F03F74
:200540000000E03FECF400000000E041FFFFEF3FFFFF3F43BAF5801F4FF0000205DACA4B4C
:200560000BF002FD8A466FF034024FEA2A53C74ECAF3130AA3F2FF334AF07F571344B24552
:200580000C9347F4401740F3D083C14B9A4540F307840026B4460C9BA7F5801701330C932E
:2005A0003946BC4B4FEACC0C6344D3E900AB52465B46CDF834C0CDE906010BF021FB524638
:2005C0005B46CDE90801DDE906010BF01BFB02460B460020B0490BF0F1FD02460B46DDE9E3
:2005E0000801CDE90A230BF0BFFC02460B46CDE90223CDE904237B1043F0005303F50023DC
:2006000099190020002306460F460293DDE902231046194632463B46CDE900010BF0A4FCC4
:2006200002460B46DDE908010BF0EAFA5246CDE908015B46304639460BF0E2FA02460B4616
:20064000DDE906010BF0DCFA02460B46DDE900010BF08AFC02460B46DDE908010BF0D0FAEE
:20066000DDE90A230BF080FCDDE90423CDE90601104619460BF078FC02460B4606460F4608
:200680000BF072FC6EA3D3E9002382468B46304639460BF069FC6CA3D3E900230BF0B2FA7E
:2006A00032463B460BF060FC69A3D3E900230BF0A9FA32463B460BF057FC67A3D3E9002331
:2006C0000BF0A0FA32463B460BF04EFC64A3D3E900230BF097FA32463B460BF045FC62A39B
:2006E000D3E900230BF08EFA02460B46504659460BF03AFCDDE9042306460F46DDE9000144
:200700000BF080FADDE906230BF02EFC32463B460BF078FADDE9006782468B4632463B462B
:20072000304639460BF020FC00225C4BCDE908010BF068FA52465B460BF064FA02980F4647
:200740000646DDE9000132463B460BF00DFC32463B46CDE90001DDE906010BF005FC0022EE
:20076000CDE906014D4B304639460BF049FADDE908230BF045FA02460B46504659460BF0FD
:200780003FFADDE904230BF0EFFB02460B46DDE906010BF037FA82468B46DDE900015246C4
:2007A0005B460BF02FFA32A3D3E9002302980F4606460BF0D9FB30A3D3E90023CDE9040149
:2007C000304639460BF0D0FBDDE90023CDE90601304639460BF014FA02460B4650465946EC
:2007E0000BF00EFA26A3D3E900230BF0BDFB02460B46DDE906010BF005FADDF834C0284BFF
:20080000CDF818C06344D3E900230BF0FBF9CDE900010C980BF042FB06460F46DDE90401C7
:20082000204BDDF818C09C44DDE90023DCE900AB0BF0E8F952465B4636E000BFAFF300805B
:20084000EF4E454A287ECA3F65DBC9934A86CD3F01411DA96074D13F4D268F515555D53FA8
:20086000FFAB6FDBB66DDB3F033333333333E33F000000E009C7EE3FF5015B14E02F3EBED6
:20088000FD033ADC09C7EE3F000040438E98030079B60B0028F200000000F03F00000840CE
:2008A00018F2000008F20000CDE906AB0BF0AAF932463B460BF0A6F9029832463B46824641
:2008C0008B460BF09DF9DDE906230BF099F9DDE904230BF095F902460B46DDE900010BF069
:2008E0008FF9CDE9020108F1FF3858EA09030CBFD54BD64B0022CDE904230023CDE9004510
:200900000093DDE90067204632463B4629460BF077F952465B460BF027FBDDE902238046D7
:200920008946204629460BF01FFB02460B46404649460BF067F904460D46524630463946CB
:200940005B46CDE902450BF00FFB06460F4620463B46294632460BF055F9BD4B8246994291
:200960008946884640F3138101F13F4303F5E003034340F0E581A0A3D3E90023DDE90201FD
:200980000BF040F9324604460D463B46504649460BF036F902460B46204629460BF074FD64
:2009A000002840F0CD814C462015A0F2FE304FF4801101414144C1F30A50A64CA0F2FF35A9
:2009C000C1F3130BC0F5826003302C414BF4801B21EA040300224BFA00FB394630460BF0D0
:2009E0000FF906460F46DDE902018BEAE87B0BEBD87B32463B464FEA0B5A0BF003F980A3B3
:200A0000D3E90023002420460D460BF0ADFA3246804689463B46204629460BF0F1F80246E9
:200A20000B46DDE902010BF0EBF877A3D3E900230BF09AFA76A3D3E9002306460F46204637
:200A400029460BF091FA02460B46304639460BF0D9F806460F4632463B46404649460BF09D
:200A6000D1F842464B4604460D460BF0C9F802460B46304639460BF0C3F8224680468946FA
:200A80002B46204629460BF06FFA63A3D3E9002306460F460BF068FA61A3D3E900230BF0EB
:200AA000AFF832463B460BF05FFA5FA3D3E900230BF0A8F832463B460BF056FA5CA3D3E9C7
:200AC00000230BF09DF832463B460BF04DFA5AA3D3E900230BF096F832463B460BF044FA91
:200AE00002460B46204629460BF08AF806460F4632463B46204629460BF036FA0022CDE999
:200B000000014FF08043304639460BF079F802460B46DDE900010BF051FB424606460F46A1
:200B20004B46204629460BF01FFA42464B460BF069F802460B46304639460BF061F822467C
:200B40002B460BF05DF802460B4600203F490BF057F88A44BAF5801F0246C0F227815346F2
:200B6000DDE904010BF000FA03463EE4BCF1000FFFF66EAC0023194637E40B46334934E4FD
:200B80003346104631460BF0EFF903462DE4324B21F000449C4240F3FA80304B0B44034365
:200BA0000CD132463B460BF02BF802460B46DDE902010BF055FC00283FF4F6AE20A3D3E915
:200BC0000023DDE904010BF0CFF91DA3D3E900230BF0CAF9034608E4BCF1000FCADA234609
:200BE00005F1004101E402460B46002017490BF0E5FA42E4AFF30080FE822B654715973C5F
:200C000000000000432EE63FEF39FAFE422EE63F396CA80C615C20BED0A4BE726937663EAD
:200C2000F16BD2C541BDBB3E2CDE25AF6A56113F93BDBE166CC1663F3E5555555555C53FFB
:200C400059F3F8C21F6EA5010000F0BF0000F03FFFFF8F40FFFF0F00FFCB904000346F3F27
:200C6000634B9A4582DD634B9A453FF7EDAB0022604B0AF0C5FF54A3D3E9002306460F462B
:200C80000BF072F952A3D3E90023CDE90001304639460BF069F93246CDE902013B463046E9
:200CA00039460BF061F9002282468B4630463946514B0BF059F902460B4647A1D1E900018B
:200CC0000AF09EFF32463B460BF04EF902460B4600204A490AF094FF02460B46504659469B
:200CE0000BF042F93EA3D3E900230BF03DF902460B46DDE902010AF083FF06460F46DDE988
:200D0000000132463B460AF07DFFDDE90023002082468B460AF074FF02460B4630463946C6
:200D20000AF06EFFCDE90201DDE50026B44637E4334600202F490BF041FA0346FFF755BB00
:200D400029A3D3E90023DDE904010BF00DF926A3D3E900230BF008F90346FFF746BBB8F18F
:200D6000010F03467FF441AB01F10041FFF73DBB00297FF446ABC3F58263033347FA03F006
:200D800000FA03F3BB4217D08846FFF710BB1B4B9C423FF709AEDDE90023924693462EE611
:200DA0004FF480264FF0010CFFF7FABB5A4600F027F802460B46D3E600F00100C0F10208A6
:200DC000FFF7F5BAAFF30080000000604715F73F44DF5DF80BAE543E555555555555D53F85
:200DE000FE822B654715F73F9C7500883CE4377EFEFFEF3F0000F03F0000D03F0000E03F5B
:200E0000F8B5C1F30A5604460D460B46174616BB21F00043034332D00022314B0BF0A4F824
:200E2000304A044697420D460B4637DB40F2FE72C1F30A56363E3E44964215DD24A1D1E96A
:200E4000000122462B460AF0CFFE21A3D3E900230BF08AF8F8BD40F2FF72964224D040F27B
:200E6000FE723E449642E9DC002E09DD23F0FF4323F4E00343EA065520462946F8BDF8BDB9
:200E800016F1350F15DA4CF250339F42D6DC12A1D1E9000122462B460AF0A6FE0EA3D3E972
:200EA00000230BF061F8F8BD02460B460AF0AAFEF8BD23F0FF4323F4E003363643EA0655D3
:200EC000204629460022084B0BF04EF8F8BD00BF9C7500883CE4377E59F3F8C21F6EA5016C
:200EE00000005043B03CFFFF0000903C044B1A68B2F5806F03D01B689B0500D4FEE77047DC
:200F000028ED00E008B508F093FF0C4A0C4B0D498B4204D252F8041F43F8041BF7E70A48F8
:200F20000A494FF000028842B8BF40F8042BFADB01F040FCFFF7DAFF08BD00BF49FD0000DA
:200F400000000020D9070020E0070020C737002010B503880446662B0AD0952B32D05BBB6F
:200F60001F4A852110681A4604F06CFD662321E0852925D101F0E0FB1A481B4901F0FCFB85
:200F80001A481B4901F0F8FB1A481B4901F0F4FB1A481B4901F0F0FB1A481B4901F0ECFBC1
:200FA0001A481B4901F0E8FB1A4B812001219B6898479523238003E000230380032010BDB9
:200FC000012010BD144B1B788B42F2D1134B9A42EFD1134B1B6A9847124B1B6A9847E8E755
:200FE0004C1300205C040020F5F500003804002005F600005405002010F60000C804002046
:201000001AF60000A404002029F60000EC0400203AF600009CF30000B2370020ACF3000062
:20102000800400201005002073B5164C0C23154600228DE80C000E46636D13496A46984711
:2010400050B100980BF0D6FF20EAE0703028C8BF30230190C8BF0193019A28460B490CF096
:201060004FF8E369D4F8B41030469847636B01A9304601229847E36C30462946019A98475A
:2010800002B070BD50F2000061F6000065F600002DE9F0411A4CADF6081D4FF000080F466C
:2010A0001546CDF80480636D164901AA0646984770B101980BF09EFF021E03DB302AA8BF76
:2010C000302200E0424628460F490CF019F806E00D4A13682B6053686B609368AB60E36968
:2010E000D4F8B41038469847236D304602A99847002402AB1919054803F08CFE3034F8E763
:2011000050F2000061F6000065F60000CEF60000034A0448136801331360034BDB6D184767
:20112000E80700208004002050F200002DE9F04115461F460A4C0E46E3690846D4F8B410DF
:201140009847084B39462846074A1B68E46C0CF056FF2946024623463046BDE8F041184730
:2011600050F20000E807002074F70000064B07481A684FF48071012A0CBF002201221A60A8
:201180001B68034A04F06EBAEC070020F007002095110000012808B54FF0020006D101F0A4
:2011A0009BFCBDE80840034804F066BABDE8084001F088BCF0070020064B07481A684FF4AE
:2011C0008071012A0CBF002201221A601B68034A04F048BA3008002010080020E111000021
:2011E000012808B506D101F077FCBDE80840044804F042BA0120BDE8084001F063BC00BFC8
:201200001008002008B5094A1378012B03D9BDE8084000F0EDBF01330549137000F0F6FF80
:20122000BDE80840034804490CF022B988270020340800206408002049F7000070B5184ED0
:20124000AAB033784BB3174CA08A2146228A00F067FD054608B3144B214693F8642001A813
:201260000CF03FFD04F130000CF060F904F13001024601A80CF023FDA38D0022A16A01A883
:201280000CF0CFFC05F1360101A800F063F8A886284600F07DFD002333702AB070BD00BFD4
:2012A000882700203408002050F20000034A0448136801331360034BDB6D1847B408002035
:2012C0005405002050F200002DE9F0410D4616461F460E4C0846E369D4F8B41098470C4B3E
:2012E00028461B6A9968236BC9099847094B39463046094A1B68E46C0CF081FE3146024612
:2013000023462846BDE8F041184700BF50F2000054050020B40800206AF7000010B50446FB
:2013200000200146024606F0C3FE044B048218600CF063FF024B188010BD00BFB80800204B
:20134000CC210020024B1888013080B218807047CC210020F7B504460123216003710023A2
:201360000B700E46016800790A7842EA80120A70206862790178120102F030020A43027030
:20138000A27A206802F00F0102780A4302702268A179517022892168120A8A70226821898B
:2013A000D170A279002A00F04081224652F80A5B0435A17A8B4205D212F8011F013305F88C
:2013C000011BF6E7E37C03F0020303F0FF015BB194F86A30002100932A46012004F16B03F0
:2013E0000CF0B3FA01210544E37C1A0708D5236C2A4600930320636C0CF0A7FA03210544EE
:20140000E37CDB060AD594F824302A460093042004F125030CF099FA04210544E37C9F0688
:2014200006D52A46052000230CF05FFA05210544E37C580606D52A460620636E0CF055FA0B
:201440000621054494F91330002B07DA2A460720B4F850300CF049FA07210544237DDA074C
:201460000AD5A36C2A4600932F2301930820E36C0CF07BFA08210544237D1B070AD5E36D4A
:201480002A4600932F2301930B20236E0CF06DFA0B210544237DDF0606D52A460C20A38BA5
:2014A0000CF023FA0C210544237D580606D52A460E20236A0CF019FA0E21054494F9143041
:2014C000002B0CDAD4F894302A460093262301930F20D4F898300CF048FA0F210544637D31
:2014E0009A0707D52A461120B4F868300CF0FDF911210544637DDB060AD5636D2A460093AA
:20150000262301931420A36D0CF02FFA1421054494F91530002B1CDA676F94F878303F01CA
:201520000BB147F00807B4F87A3000201B09421C5B0892B201D01046F9E7002A18BF0246BA
:2015400002F00F0317202A463B430CF0CEF917210544A37D1F071DD5D4F8807094F88430EA
:201560003F010BB147F00807B4F8863000201B09421C5B0892B201D01046F9E7002A18BF76
:20158000024602F00F031B202A463B430CF0ADF91B210544A37DD80607D52A461C20D4F85D
:2015A0008C300CF0A2F91C210544E37D1A0708D5236B2A4600932320636B0CF0C6F9232153
:2015C000054494F91730002B08DAA36B2A4600932720E36B0CF0B9F927210544A37EDB06FA
:2015E00006D52A463C20D4F890300CF07EF905442368EB1A3E2B11DCB4F89E3013B1FF23B6
:2016000005F8013B2846D4F8A010B4F89E200BF0EDFDB4F89E00AD1B284407E0044A054B55
:201620000025256028461A6000E0042003B0F0BD98F70000780500202DE9F0418C46104916
:2016400004460F680D46BE4600F11008764620686168083403C64445B646F7D11146A7F814
:2016600012C01A46384606F089FE2C680021204610220BF01FFE00236382BDE8F08100BFFB
:20168000B80800202DE9F7438846064600219146A4220BF00FFEC6F8008098F800309B0998
:2016A000337198F80020012BC2F30112727198F8004004F00F07B77298F80120B27198F898
:2016C000021098F8032042EA0122328101D0A14A02E0082F04D9A04AA04B80201A6035E18C
:2016E00008F1040421463A4606F10B000BF008FD06F11300002108220BF0DCFD3C44002730
:2017000008EB09039C4280F02081257805F0F003F02B14D10134C4EB0808C1441FFA89F9C2
:20172000B9F1300F8ABF3023A6F89E90A6F89E30B6F89E300020C6F8A040E05406E12B0963
:201740000D2B05F00F0503D1637802340D330AE00E2B03BFA378627803F20D13013404BF3C
:2017600003EB022303340D2D03D114F8015B0D3508E00E2D01BF657805F20D1214F8025B28
:2017800002EB05251F4406EBD70107F00703012202FA03F0CB7C0E2F43EA0003CB746CD0C4
:2017A00029D8062F00F0AB8017D8032F00F084800BD8974240F0C0802A46082D28BF0822E1
:2017C00086F86A2006F16B006DE0042F5BD0052F40F0B28086F89C20B5E0082F7DD06ED3CA
:2017E0000B2F73D00C2F40F0A780204629460BF0E8FFB083A7E01B2F00F0878026D8112FEA
:201800004AD009D80F2F40F097802623009306F1980006F1940166E0142F69D0172F40F019
:201820008B80204629460BF0CCFFC0F3C00300F0070286F8783010239340A6F87A3020F00F
:201840000F0393400009F36770677CE0232F2ED008D81C2F70D1204629460BF0B2FFC6F812
:201860008C0070E0272F22D03C2F65D1204629460BF0A7FFC6F8900065E0204629460BF0CA
:20188000A0FF30625FE02A46082D28BF082286F8242006F1250006E0204629460BF091FFFE
:2018A000A6F868004FE021460BF02AFC4BE02C4A2A4BA5201A6049E07464356443E02046F3
:2018C00029460BF07EFFA6F850003CE02F23009306F1600006F15C0105E02F23009306F1C6
:2018E0004C0006F1480122462B460BF075FF2AE02623009306F1580006F15401F3E7204653
:2019000029460BF05EFF70661DE0204629460BF058FFC0F3C00300F0070286F88430102332
:201920009340A6F8863020F00F0393400009C6F88830C6F8800006E0FB0704D5094A074B68
:2019400082201A6002E02C44DAE6002003B0BDE8F08300BFC7F70000DEF70000780500207F
:2019600003F800002AF80000014B1860704700BF080A00202DE9F04F038887B0814633B11C
:20198000B3F5AD7F13D0002303800320ACE1A848A84900F0F1FE00F0B9F943F21630FFF767
:2019A000BDFC4FF4AD73A9F8003001209CE1A24B1B788B4240F09281A04D00232B70A04B76
:2019C0001B789807EDD59F4E9F4BA04C316820461A88FFF757FEB046074628709C4E002877
:2019E00040F01781A379013B032B00F2DC80994B994A1B7802F1080128332089D25A00F0D5
:201A00008FF93060002800F0C8802023ADF80A30637903970497059723B990480221452241
:201A2000238905E0FFF78EFC03468C48012145220BF0D6FFA27A1AB1884889490CF005F89D
:201A400004AB0093814803A900220DF10A030CF0CFF840B1BDF80A30202B28BF2023ADF8E5
:201A60000A30049B05937F4BD3F800C0BCF1000F00F08F803268794FDFF8D0B105A90091EC
:201A8000BDF80A30584639467432E047BA4600286ED02B78002B6BD19BF8163019070DD522
:201AA00097F90630002B09DBBB7D1A0706D4634BA1221A706C4A6D4B1A6059E094F9153030
:201AC000059A002B41DA049B9A4223D1BAF89E10624F8A4205D38223BB71384664490F22D0
:201AE00044E0BDF80A308A1A9A4294BF00220122039938460CF095F80499B7F89E30BDF849
:201B00000A205B1AD7F8A0E09A423846714428BF1A462BE001320399BDF80A3006D1BAF82F
:201B20009E209A4294BF0022012200E001224B4F38460CF076F8BDF80A20BAF89E309342BA
:201B400016D93846D7F8A01010E08AB1013218BF01220021414820230CF063F8BAF89E208D
:201B60003E481F2ADAF8A01088BF20220CF0A7F82B78002B4DD13768384807F13601FFF7C0
:201B8000E9FB80B2B886002843D12C4BC1221A703FE0A1232B70374A02E0A323364A2B700F
:201BA000324B1A6035E0636823F07F4323F0FF0313B9C3232B700CE06379032B09D1254BD7
:201BC000254A1B7802F108002833D15A228900F0D7F9208900F028F9306040B1C76AD0F8E3
:201BE00030A000F0BFF817B150461849B847002333606379154A012B0BD8D37C5B0608D523
:201C0000144B15491B7801F108002833C95A00F07FFC2B78094F30682BB900283FF4C1AE50
:201C200000F0B6F8BDE6C22B28D100F09BF8B8E6A405002046F80000BD3700208927002071
:201C40005C33002068330020642F0020BC080020600900202D2E0020742F0020640900202F
:201C6000C7080020080A002057F800007805002067F8000077F8000088F8000000F072F8AF
:201C80003B78C32B03D100233B70032104E0BF2B84BFA0233B7002212A78238914480BF096
:201CA0009FFE144B144D1C6820460BF03FFC214602460F480CF003F8104BD8F800401B78AC
:201CC000214628330A485E5BFFF744FB314683B2224605F10800FFF7AFFC62E688297FF4E3
:201CE00060AE00F0AFF85CE607B0BDE8F08F00BFBC08002078050020742F00202D2E0020A4
:201D00000148002103F0CABE7C050020024B1A68024B1A60704700BF4C130020100A002078
:201D2000F8B507460D480D4616460CF01EFA044690B1294600230376878000F11A0305F1F0
:201D4000100251F8040B914243F8040BF9D16685034821460CF0D7F92046F8BD8C050020FD
:201D60000C0A002010B5044660B1083003F05AFD214605480CF0B3F92146BDE81040034888
:201D80000CF007BA10BD00BF0C0A00208C0500202DE9F041044600F11A073846618D04F10F
:201DA0003602A38EFFF748FC94F83650C5F3011575BB237E032B1AD853B90CF01EFAC023AC
:201DC000B0FBF3F202FB130000F28110E06002E0E3685B00E360124D124B2E681B6804F10B
:201DE00008002B600CF035F92E60BDE8F081E66A3846618DD4F8308000F04AF82046FFF7BC
:201E0000B1FF56B1404629463346BDE8F04118472046BDE8F041FFF7A5BFBDE8F08100BFFD
:201E20004C130020100A002010B5044604480CF04CF920B18388A34201D00068F9E710BDA6
:201E40000C0A002010B509480CF03FF9044664B104F108000CF006F928B1237E2046013397
:201E60002376FFF795FF2468F1E710BD0C0A002010B50446044821460CF08BF92146BDE88A
:201E8000104002480CF02BB998050020A40D0020F8B506460C480F460CF017F9044600251D
:201EA0007CB104F11800314610220BF0F7F830B9238DBB4203D12046FFF7DAFF01352468F4
:201EC000EEE72846F8BD00BFA40D00202DE9F84307461348884691461E460CF0F6F8044644
:201EE0000025D4B104F11800394610220BF0D6F888B9238D43450ED194F82A30B3420AD1A3
:201F000004F12B00494632460BF0C8F818B92046FFF7AEFF01352468E3E72846BDE8F883EB
:201F2000A40D00202DE9F84307461448894690460CF0CBF804460025E4B14FB104F1180061
:201F4000394610220BF0AAF890B9238D4B450FD1261D464508D030460BF0E8FA4146024602
:201F600030460BF09BF818B92046FFF781FF01352468E1E72846BDE8F88300BFA40D002008
:201F80002DE9F04106460F480F4690460CF09DF80446002594B104F11800314610220BF036
:201FA0007DF848B9238DBB4206D1A38E434503D12046FFF75DFF01352468EBE72846BDE83B
:201FC000F08100BFA40D00202DE9F0414668DAB0804630460D460BF0A9FA0446314603A8E8
:201FE00013220BF01BFB122C07DC35B103AB18192946C4F113020BF011FB0024234608A838
:20200000012145228DF81F400BF0EAFC23460122214631A80BF0E4FC03A931A80BF08AFDC4
:2020200003A80BF083FA06462D480CF04EF80446002C52D0251D28460BF078FAB04208D0FB
:2020400049DD98F80830DB0645D5A3191B792F2B41D103A8294632460BF096FA00283AD18B
:20206000FFF770F904F11801228DFFF759FE054688B3A16B142391FBF3F203FB12130BB9D6
:202080008DF82530AB8831A8A386AB88D8F81070ADF828300023009308A9302305F174028B
:2020A000B8479DF92630002B05DBA16B08A84B1CA3630BF096FD04F12B0194F82A2008A8CC
:2020C0000BF0C3FC08A805F13601FFF743F9A8862846FFF75DFE2468AAE75AB0BDE8F0810D
:2020E000A40D00202DE9F74F92468A790B46012A6ED19AF90620002A6ADBCA7C520667D51B
:202100004E6E002E48D1344A344D1278D1F860C0283232F805808F7AD1F85CB0624601F1C9
:202120000B0905F108004146CDF804C0FFF7FAFE2B480CF01AF8044600283ED0BBF1130FC0
:20214000DDF804C0A8BF4FF0130B61465A460430A3440AF0D5FF8BF8046004F1180E05F1FA
:2021600008030FCB8EE80F0049463A46A4F8288084F82A7004F12B000AF0C2FF2146A6861E
:2021800018480BF0C0FF5046A16B4B1CA36303B0BDE8F04F0BF025BD012E19D10E4A1249D6
:2021A000127801F108002832895A03F10B029B7A03B0BDE8F04FFFF789BE50460B49A323C4
:2021C00010228AF8063003B0BDE8F04F0BF077BD03B0BDE8F08F00BF2D2E0020742F00207B
:2021E00098050020A40D0020742F0020ACF80000034BA3221A70034A034B1A60704700BFC2
:2022000089270020BDF80000780500202DE9F0430446ABB000890D46FFF706FE0646002864
:202220004DD06279C2B901A8022123890BF0D8FB264BDFF8A4801B7801A8283333F808901F
:20224000234B1F683946FFF785F8494683B23A4608F10800FFF7F0F92F4606F11A0306F1F3
:202260002A0E3A4618685968083303C273451746F7D1738D2B826379003318BF0123AB74B2
:20228000FFF760F8A88204F10B0105F11700A27A0AF036FFA37AAB75D4F880302B62B4F87B
:2022A0008630AB84636FAB62B4F87A301BB1202B28BF202300E02023AB85C22200E0A022EA
:2022C000044B1A702BB0BDE8F08300BF2D2E00206833002089270020742F00202DE9F74F4E
:2022E0000C9F8B4690461E4600F060FA0BF0EDFE002481462546B9F1000F7CD04DB13B68FC
:202300009D4205D3B4423EBF2C2308F80430013401353B689D4205D3B4423EBF3C2308F879
:20232000043001343A686B1C934205D3B4423EBF2F2308F804300134D9F804C0023560463E
:20234000CDF804C00BF0F2F83B6800EB050A9A45DDF804C00FD9711C5B1B08EB0400091BF4
:20236000002BACBF63440CF10003344A0BF047FE0444B4423FD23B689A4505D3B4423EBFC6
:202380003E2308F804300134D9F80C300AF1010543B31B7833B33B689D4205D3B4423EBFA9
:2023A0003B2308F804300134D9F80C300AF1020A184601930BF0BAF83A6800EB0A05954230
:2023C000019B0FD9CAEB020A711C08EB0400091BBAF1000FA8BF5344184A0BF010FE0444A5
:2023E000B44204E0B44203D93A682B1B934203D8D9F800907FE74CB14146584622460BF04D
:202400005EFC584628210BF037FB09E045B1822158460BF014FB584609490F220BF04FFCBD
:20242000B9F1000F03D14FF0FF333B6002E03B681E443E6003B0BDE8F08F00BFCAF8000026
:2024400067F8000038B50C46054620B90E480BF0C5FC042038BD0D480BF0C0FCAB79413BE3
:202460003E2B04D90A480BF0B9FC032038BDEB7C5B0604D407480BF0B1FC022038BDB4FAA0
:2024800084F0400938BD00BFD3F80000DFF80000EEF8000002F900002DE9F04104460A4D60
:2024A0000F462146094C1646284600220BF098FA21682846FEF74EFF314683B222683846A5
:2024C000BDE8F041FFF7B8B8AC0D00206833002070B505460C480E460BF0F7FD044684B1A6
:2024E0000A4829786A7802F095FC237FB34206D104F11D00294632460AF0D0FD08B1246811
:20250000EDE7204670BD00BFA80D002072F90000F7B51446074622480E460BF05FFCA57ACF
:2025200020480BF05BFC0DB91F482DE01F480BF055FC294604F10B00FFF7CAFF054648B97A
:202540001B480BF04BFC0320394632462389FFF7A3FF22E063792BB90220394632462389F1
:20256000FFF79AFFEB6AC3B120460021FFF76AFF012806460CD1204601A90BF026FB019B03
:202580002A6B934203D10B480BF028FC05E02B63EB6A284621463246984703B0F0BD00BF78
:2025A000EDF9000008FA000016FA00005AFA000070FA0000B8FA000070B502880546C02ACF
:2025C00009D0D02A21D082B91B4B8521186803F039FAC02307E085290BD118480BF075FD29
:2025E000044644B9D0232B8003E000230380032070BD012070BDE3692BB1A16819B104F1DF
:202600000C000BF014FD2468EBE78829EAD10B480BF05BFD0446002CE4D0A36853B104F104
:202620000C0630460BF01EFD20B1E369984730460BF006FD2468EEE74C130020500E00202E
:202640002DE9F04F3A4D87B00E46994606A9002341F8043DEB6890460746DDF840A09847DE
:20266000029034480BF031FD0446DDF814B0002C51D06368184603930AF058FF029B0246FE
:202680008342039B07D044DD217AC90641D51BF800102F293DD1184659460AF075FF002843
:2026A00037D12B6938469847C20704D5D4F810C0BCF1000F14D1830704D5D4F814C0BCF192
:2026C000000F0DD1410704D5D4F818C0BCF1000F06D1020715D5D4F81CC0BCF1000F10D07E
:2026E0004B46CDF800A0384631464246E047237A5B0617D520462B6E394632469847012060
:2027000005E06B693046D5F88C109847002001240AE02468ABE76B693046D5F88810984767
:20272000012001E001200446204007B0BDE8F08F50F20000540E002038B50A4B1C7884B91A
:20274000094D012209481A700BF0BCFCAB68084898476B6898472146BDE83840054803F0BA
:202760009DB938BD9127002050F20000540E002041260000C805002010B50446416009481D
:2027800021460BF0C0FC94F90830002B09DA216ACB6933B18B6823B1BDE8104002480BF0A4
:2027A000B2BC10BD540E0020500E002000487047540E00202DE9FF41604C61482368012105
:2027C0005B689847236801210A461B685C4898470CF0D5FA01F060FF01F0CAFE00F042FF4F
:2027E00001F004FF00F05CF9564B01201860A3F58043043B186003F5005324331B680BF034
:2028000088FA0CF0C0FA01F08DFA01F031FA0BF037FC01F05DFB03F09BF841F234200BF06D
:20282000EAFC01F09BFC03F0BDF947480BF0D6FA4AF630520021454802F0ECFA44480BF058
:20284000CDFA0021434803F029F902F0D5FE0BF0EDFB02200BF05DFA3F4802F0DBFA3F4BFC
:202860003F4C18680BF0BAFA3E4802F0D3FA3E4B18680BF0B3FA3D4802F0CCFA21683C485E
:2028800002F0C8FAE469A04720B1A0470146394802F0C0FA0A200BF09AFA002507F0BAFD98
:2028A00002A80821019501F039FB9DF80F309DF80E80314C314E43EA082802AB03CBF76A5E
:2028C0002060616002204AF6CD31B84741460320B8470F210120B8470822736B02A90B2081
:2028E0009847B36A01A9012098470199244802F091FA244A236813606368536007F0D8FEF8
:202900002946214803F0CAF802200BF002FA29461E4803F0C3F81E480BF07EFB01F0EEFADB
:2029200001200BF0F6F903F02BF8044601F0DCFA14F0FF0FF7D101F039FDF4E7D8010010A0
:20294000004003400C4009402EFB000051FB000068FB0000900600207CFB000084F40000E2
:20296000B8F4000083FB00009CF400008AFB0000CAF8000091FB0000BF37002044F400007C
:20298000B4FB00006C2F002014070020D805002048F2000070B505880446772D30D07E2D10
:2029A0003FD0002D4DD102F0CBFF294B1870294B1D601D462B68284A264E52F823204AB1B0
:2029C00026480021C154936880209847336801333360EFE7224A1370772320E01F4AD25687
:2029E000002A12DB1B4A136801331360194B1C4A1B6812789342F1DB1A4B1B68002BEBD0F3
:202A0000184A00231360134AEFE7114A00201178114A52F8232003F015F830B97E23238072
:202A200013E00B4B1B788B420FD10A4B0B491A688B5C03F07F038B540A4A13680133136031
:202A4000D0E700230380032070BD012070BD00BFB2370020580E0020E8050020B337002016
:202A6000922700205C0E0020094B1A780023934204DA084951F82310814207D10649074831
:202A8000CA5C62F07F02CA5403F020B80133EEE792270020E8050020B3370020D80500205E
:202AA00008B500F021F8024B00221A7008BD00BF93270020024A13781843107000F02EB871
:202AC00093270020034A137823EA0000107000F025B800BF93270020024A13785840107062
:202AE00000F01CB89327002010B5094B1A6872B90122084C1A6023680A20DB6B984723681C
:202B00000F20DB6B9847044B4FF404421A6010BD600E0020B4010010A0200240094B4FF456
:202B200004421870084B1A60C20744BF4FF4806243F8102C830742BF044B4FF400421A60B9
:202B4000704700BF94270020A020024090200240813801289ABF024B18680020704700BF92
:202B6000840E0020024B032202481A60FFF77CBF840E00205CF300002DE9F84F524B0446F7
:202B80001B68032B03D04FF00040BDE8F88F431E012BF8D84D4D0622002128460AF08AFBD9
:202BA0000020772100F0D6FFF720294606220CF0CCF920B9284606210CF0D4F9E3E7EB78C5
:202BC0002F7943491B0343EA07136F79088843EA17132A7895F801B0AE78C0EB13156D4304
:202BE0004000B1F904E0C0EBD3032D13B1F902000EFB05F55843AD1305EBE0274FEA67089D
:202C0000A8F57A484FEAA80E0EFB0EFEB1F90A304FEA6E355D43B1F90830C88808FB03F3C6
:202C20005B1003EBE505AD1405F500456843C0138F61B1F910A0B1F90EC0B1F90C9039D0C2
:202C4000360946EA0B1B4BEA0232C2F1000B40F635420FFA8CFC0CFB08F84FEAEE2E0FFA15
:202C60008AFA4FEA48080AFB0E8E4FEA094909EBAE03ABEB23335A4302F1434303F5A003D9
:202C8000002BB3BFB3FBF0F35A00B2FBF0F35B00DA085243B1F91600520B4243B1F91400EA
:202CA0009D086843401300EB2232B1F91200104403EB2010012C05D107EB870080300012C6
:202CC000BDE8F88FBDE8F88F840E0020952700209B270020802873B50D46254C02D081281D
:202CE0001DD041E0012626600BF03DF82149182288200CF02AF902ADB62305F8013D29464C
:202D00003246E02007F0C0FE0BF02DF8002329463246F4208DF8073007F0B6FE24E0206855
:202D200018B391B10BF01FF825230DF107010122F4208DF8073007F0A7FE00230E480321FA
:202D40000E4A02F08FFC02230DE00B4802F0B0FC0BF009F8F4200DF1070101228DF8075086
:202D600007F092FE01232360206802B070BD00BF840E00209B270020640E0020652B000049
:202D8000813801289ABF024B18680020704700BFAC0E0020024B032202481A60FFF764BE6D
:202DA000AC0E00206CF3000010B504464421002000F0D0FE084B1CB14FF480521A8000E0D9
:202DC0001C801A88022052BA1A8003490246BDE8104007F059BE00BFCE210020802838B5F3
:202DE0000D46184C02D0812813D028E0164D01202B689B6B98472B6801209B694FF48041FE
:202E000098472B680120DB694FF080419847002011E02068A0B151B10120FFF7C5FF002312
:202E20000A4824210A4A02F01DFC022306E0074802F03EFC2846FFF7B7FF012323602068CD
:202E400038BD00BFAC0E0020B40100108C0E0020952D000070B52F4B05461B68032B02D036
:202E60004FF0004070BD8207FAD0032849D12A4E0020442100F06EFE0420314602220CF0FA
:202E800064F8264C80B133885BBA33805B040BD50120214602220CF058F828B12846A11C75
:202EA00002220CF052F820B91C4804210CF05AF8002063782578A27843EA0525E37843EA67
:202EC00002230028CCD0980809F0F2FB4FF0745109F042FC124909F03FFC09F08DFD114BDA
:202EE0001860A80809F0E4FB4FF0745109F034FC0B4909F031FC09F07FFD0B4B18600120C7
:202F000070BD012801D1074B02E00228A8D1064B186870BDAC0E0020CE210020B3270020D1
:202F200000007A44880E0020B00E0020014B1868704700BFD40E002073B506460E4C00200D
:202F40004521256800F006FE36B141F2C203ADF806300123236006E04FF4865305F002052B
:202F6000ADF8063025600DF106010222012007F08BFD02B070BD00BFD40E0020802810B51B
:202F80000C4602D0812802D013E000200FE051B10120FFF7D1FF08481021084A002302F0BF
:202FA00061FB012010BD044802F082FB2046FFF7C3FF002010BD00BFB40E0020C12F000070
:202FC00007B50020452100F0C5FD01200DF1060102220BF0BAFFBDF90630002B06DA0848B8
:202FE000FFF742FD074B02221A6005E006481021064A002302F036FB03B05DF804FB00BFEC
:203000007CF30000D40E0020B40E0020C12F0000813801289ABF024B18680020704700BFCF
:20302000F80E002038B5114B114C03221A602378ABB1104D0020432100F08CFD0421284641
:2030400000F0C4FC20700020014600F083FD2B88094A5BBA13806B88084A5BBA138001239A
:2030600023700748BDE83840FFF7FEBCF80E0020B7270020D4210020D0210020D221002044
:203080008CF30000802837B5204D02D081281BD039E01F4B00241C801E4B20461C801E4B33
:2030A00043211C805C8000F055FD02A91023022021F8023D024607F0E7FC184B2146187026
:2030C000204600F047FD1CE02868E8B1B1B1134C23785BB14321002000F03CFD002000F00C
:2030E00057FC20700020014600F034FD00230C4803210C4A02F0B6FA022303E0084802F088
:20310000D7FA01232B60286803B030BDF80E0020D0210020D2210020D4210020B7270020A2
:20312000D80E00202530000008B5114B1B78032B1CD8DFE803F002070C1108F0AFFE0022BF
:203140000C4B0EE008F0AAFE00220B4B09E008F0A5FE0022094B04E008F0A0FE00224FF03D
:203160007D5308F001FF09F099F908BD002008BDBB2700200000103F0000203F0000303F33
:20318000813801289ABF024B18680020704700BF1C0F0020024B022202481A60FFF764BCFB
:2031A0001C0F00209CF3000010B50C4C0120682100F0D0FC3F23214601226C20237007F0B0
:2031C00063FC21464F236B200122237007F05CFCBDE810400020014600F0BCBCBC27002060
:2031E00010B5084C0120682100F0B4FC214601223A200BF0AAFE0020014600F0ABFC20784F
:2032000010BD00BFB8270020802838B502D0812824D04DE0284C072023689B6B984723685C
:2032200007209B694FF40051984723684FF08041DB690720984723680C20DB6B98472368B4
:203240004FF440729B6A0C204FF4806198471B4B4FF480521A600022194B28E011F03F0181
:2032600010D0174B4FF480521960164B164C1A60012516480821164A0023256002F0F2F9AF
:20328000256015E0134B1B68DB0411D50C4B0F48196002F00DFAFFF787FF0F4B1B6813F092
:2032A0000103FAD1084A1360044B4FF480521A60054B186838BD00BFB4010010A020024051
:2032C000200F0020902002401C0F0020FC0E0020DD32000080200240042800402DE9F04194
:2032E000324B1A681C4612F0380F15D0304E337893B1304F0025012068213D7000F02AFCC1
:2033000039461C20012207F0BFFB07462946284600F020FC07B13570274D24682F7804F0F0
:203320003F0417BB0CB3254E0120682100F012FC0923314601226B20337007F0A5FB3F23B1
:20334000314601226C20337007F09EFB194901221C202F7007F098FB31463A2001220BF03B
:20336000F4FD3846394600F0F5FBE3B22B709CB1DB43124C01206821237000F0EBFB21460C
:2033800001226C2007F080FB0020014600F0E2FB0B480BF0FCFC01E0FFF706FFBDE8F041E0
:2033A00008480521084A002302F05CB9200F0020BB270020B9270020BA270020BC270020C6
:2033C00080380100FC0E002095310000064B1A7859785A7019709A78D978DA7099701A79F4
:2033E00059795A7119717047D821002008B5034B1B685B689847C0F3804008BDB4010010A9
:2034000030B9064B186800F0010080F001007047012806BF024BD86800207047C020024065
:20342000240F002030B9044B186880F01000C0F30010704700207047C020024038B5E0B908
:20344000134C20460AF030FE08B3204604210AF019FE104B1B6813F0010504D100F04CFC34
:20346000E560A06038BD00F047FCA368C01AE060BDE838400848FFF7F7BA042807D1BDE8FD
:2034800038404FF480414FF0805200F0C3BE38BD240F0020C0200240ACF30000802870B558
:2034A000144602D0812816D070BD184B012595401D60174B10461B6800211B68154A98472C
:2034C000154AE0B21368154923EA05051560BDE8704001F075B80E4E89B10C4B012595403B
:2034E0001D60336810461B680A4A002198470A4A136823EA0505156033681B6B01E033688F
:203500005B6B2046BDE87040184700BFE0200240B401001000400720D02002403D340000FB
:20352000024B186800F00800704700BFC02002408138012808B507D8044B03201B685B68F8
:203540009847C0F3804008BD002008BDB4010010802810B502D0812819D020E0114C032059
:2035600023685B6B9847104B08221A600F4B4FF4A0601B68DB699847236803201B68002187
:203580000B4A984703200B4901F01AF807E0054B1B6809B11B6B00E05B6B032098470120BA
:2035A00010BD00BFB4010010E0200240B801001000200320B935000008B507480AF074FD07
:2035C00040B10648FFF750FABDE80840024840210AF058BD08BD00BF340F0020CCF300001F
:2035E00008B5064B04201B685B699847034B04201B685B6B98470128F8D108BDB801001059
:20360000032808B51ED107F00DFB104B00219B68812098470E4B00219B68812098470D4B80
:2036200000219B68812098470B4B00219B68812098470A4B81209B6800219847084B4FF45D
:2036400080521A60BDE8084000F006B95CF300007CF300006CF300008CF300009CF3000057
:20366000A020024070B50BF08AFB0646FFF7B8FF3C4B4FF4A0601B68DB6998473A4B012292
:203680001A603A4B1B689B07FBD5394C00F0B6F807F0C2FA0BF06DFC364800F05DFF2368A7
:2036A00019209B6B984723684FF400519B6919209847236818209B6B984723684FF40051EA
:2036C0009B6918209847236817209B6B984723684FF400519B691720984723681B209B6B23
:2036E000984723684FF400519B691B20984723681E209B6B984723684FF480419B691E202F
:20370000984723680D20DB6B98471B4B4FF400551D6023684FF4807200219B6A0D20984780
:20372000236802209B6B9847236829469B690220984723680B209B6B9847236829469B695F
:203740000B20984723681D209B6B984723681D209B69294698471EB9BDE870400BF013BBA3
:2037600070BD00BFB80100102820086028200840B40100100C060020A0200240024B18688E
:2037800000F00100704700BF04280040024B1868C0F38010704700BF0428004008B5064B56
:2037A00002201B685B6B9847012803BF034B186800F00100002008BDB8010010602008409F
:2037C000024B186002200BF0E2BA00BF0428004010B5084B08481B685B68984710F00C0F98
:2037E000044602D00420FFF7EBFFB4FA84F0400910BD00BFAC0100100020004070B5104B15
:2038000002201B685B6998470D4D02202B685B6B984701280446F7D12B684FF44070DB69A7
:203820009847084B1C60084B1B689B07FBD5074B07481B6807491B680122BDE870401847C4
:20384000B80100102820086028200840AC01001000200040006CDC02214B10B5FF221A701C
:20386000FFF79CFF20B11F4A002313601E4A13601E4B4FF440701B681B6A98471C4B01223F
:203880001A601C4B1B689B07FBD51B4C082023689B6B984723684FF400519B690820984729
:2038A000236809209B6B984723684FF400519B6909209847236805209B6B984723684FF4E1
:2038C00080419B6905209847236806209B6B9847236806209B694FF48041BDE8104018477C
:2038E000D60700200428004010040542B80100102820086028200840B40100102DE9F041EF
:20390000204B214A1B7807465B0013601F4B88461E4602781A60FFF739FF0028FBD103204E
:20392000FFF74EFFFFF72AFF0028FBD1FFF750FF04460125454512D204B37B5D336008F1F3
:20394000FF339D4209D20120FFF73AFFFFF716FF0028FBD1FFF73CFF04460135EAE76CB18D
:203960000520FFF72DFFFFF709FF0028FBD1FFF72FFF0446FFF70AFF0028FBD12046BDE8A2
:20398000F08100BFBD270020002800400828004008B50B4B0B4A1B785B0013600A4B186085
:2039A000FFF7F4FE0028FBD10720FFF709FFFFF7E5FE0028FBD1BDE80840FFF709BF00BFCF
:2039C000BD2700200028004008280040F8B506460D46204B204A1B785B0043F00103136052
:2039E000FFF7D4FE04460028FAD10B20FFF7E8FE01276B1E9C4212DA97B1FFF7BFFE00281D
:203A0000FBD1FFF7E5FE07460028F2D0134B09201B6833550134FFF7D3FEE4B2E9E70FB90E
:203A2000002414E0FFF7AAFE0028FBD1FFF7D0FE04460028F4D0094B35441B68052005F870
:203A4000013CFFF7BDFEFFF7A1FE0028FBD12046F8BD00BFBD270020002800400828004039
:203A60002DE9F74F82469046374A1E4613788B4636495B000B600378354D2B600192FFF7B5
:203A800085FE0028FBD10320FFF79AFEFFF776FE07460028FAD1FFF79BFE04464FF0010932
:203AA000D94515D2002C4BD01AF809202A600BF1FF32914509D20120FFF782FEFFF75EFE2E
:203AC0000028FBD1FFF784FE044609F10109E7E7002C35D0019B1D4A1B780B205B0043F0DE
:203AE00001031360FFF76CFE4FF00009731E994512D22CB3FFF742FE0028FBD1FFF768FEEF
:203B000004460028F2D02B68092008F80930FFF757FE09F10109E9E794B1FFF72FFE0028CD
:203B2000FBD1FFF755FE58B12B68464406F8013C0520FFF745FEFFF729FE0028FBD1012778
:203B4000384603B0BDE8F08FBD27002000280040082800402B4B10B504461970FFF71EFE14
:203B600008B9FFF74BFE284B1A78A24248D0274900221C700A6026490A601B78D3B9254C53
:203B8000052023684FF4C0419B699847236806209B694FF4C041984723681F48DB6C052117
:203BA00006229847236808209B6B9847236809209B6B1BE0012B1AD1164C082023684FF442
:203BC000C0419B699847236809209B694FF4C041984723681048DB6C08210922984723683E
:203BE00005209B6B9847236806209B6B9847BDE810400A4B08481B6809491B6801221847B1
:203C000010BD00BFBD270020D60700200428004010040542B401001000200040AC0100106E
:203C2000006CDC0208B5064B04201B685B699847034B04201B685B6B98470128F8D108BD91
:203C4000B80100100749084A0B68126809688B42F8D1DB01054903EB52620023C1E9002349
:203C6000704700BF082009400C200940E007002010B5184B00200021C3E90001164C042045
:203C800023685B6B9847012801D0FFF7CBFF23680020DB699847114B01221A60104B1B6895
:203CA0009B07FBD50F4A104C1368204623F4807323F0010313600D4B0D491B681B689847D5
:203CC000042323600B4B31221A6040F2212243F8342C10BDE0070020B801001028200860BA
:203CE000282008400C00014000000140C8010010002100043C00014008B5FFF7A3FF024B89
:203D0000D3E9000108BD00BFE007002010B50BF036F8034B1C6808B90BF035F8204610BD7F
:203D2000082009402DE9F0410BF029F8194E1A4B01240025194F35601C601C623B68804639
:203D40001B682846232198473B6820461B6824219847134A136823F4E02343F44033136090
:203D6000104B1D6005F0A0FD0F4B00F5007018600E4B14201C600E4B34601B681B699847C6
:203D8000B8F1000F03D1BDE8F0410AF0FCBFBDE8F08100BF00002443800024438401001054
:203DA00000200940082009401C200940A0022443B0010010064B1868083B1B68DB0706D586
:203DC000044B1B681A1A30EA220028BF184670471C20094018200940431E012B15D810F025
:203DE00001031CBF094A116010F0020006D0084A116023B9074B01221A6070472BB1064BD6
:203E000001221A600028F5D170477047182009401C200940A002244380022443014B1868E5
:203E2000704700BF3C0F002008B509F0CEFF114B186009F0BAFF104B1B686BB10F4B4FF401
:203E400080721A6005F030FD00F2052020F4FF700B4B20F0010018600A4B1B684BB10A4B32
:203E600000221A60054B01221A60BDE8084001F039BE08BD3C0F0020A00024430420094040
:203E80001C2009408000244380022443820742BF034B01221A60C30701D50AF074BF7047D4
:203EA000000C084008B50AF06AFF074B1A68012A09BF064A00231A600223002814BF18465C
:203EC00043F0010008BD00BF000C084051E5CC1A034A044B1A600122C3F8002C704700BF24
:203EE000FFFF0F0000000840024A034B1A600122DA607047FFFF0F000000084010B5FFF735
:203F0000D1FF0446FFF7F0FF034B01221A602046BDE81040FFF7BABF040100430A4B13F845
:203F2000012FFF2A04D1094A9342F8D1084B00E0084B19440138994204D001390A7800F8E3
:203F4000012FF8E7704700BFC7FF0100CFFF0100F0120050C8FF010038B50C4B02201B6843
:203F60005B699847094D02202B685B6B984701280446F7D12B684FF40070DB699847044BFB
:203F80001C60044B1B689B07FBD538BDB8010010282008602820084008B5064B02201B68B0
:203FA0005B6B9847012803BF034B186800F00100002008BDB80100106C20084008B5084B20
:203FC00015201B685B699847064A136823F4FE6323F00203136040F2F272034B1A6008BD95
:203FE000B0010010381000404410004037B5284CFFF7B2FF2368274DDB6827489847FFF757
:20400000DDFF2B681D20DB6B9847244B4FF000521A602A684FF0FF330093156C1E481C219B
:204020001D22A84723681C485C681D494FF4E1326023A0471B4B14221A601B4A1B4913681F
:2040400043F01003136040F2011240F201330868002808BF134602F1804202F62F72136083
:2040600040F2F272124B1A600B687BB102F1804202F646021368152043F0500313600D4B3E
:204080001B681B6903B0BDE83040184703B030BDD0010010B401001000100040902002406A
:2040A000006CDC02341000402C100040400F002044100040B001001038B50546FFF76CFF59
:2040C00018B11F4B1B681A07FBD4032D03D01D4B1B68002B32D1FFF75FFF30B11A4B1B4821
:2040E0001B68DB689847FFF769FF194C4FF4007023681B6A9847032D09D123684FF400706E
:204100009B6A984723684FF400701B6B9847114B01221A60104B1B689B07FBD51D2000F0A2
:2041200037FA1C2000F034FA4FF0FF3000F030FABDE838404FF0FF3000F02ABA38BD00BF59
:2041400018100040400F0020D001001000100040B8010010282008602820084010B50AF08F
:204160000EFE0446054800F0F7F9054B00221A601CB9BDE810400AF006BE10BD2006002035
:20418000400F002010B50446FFF706FF08B9FFF72DFF044B2146BDE810401B680248DB6907
:2041A000184700BFD00100100010004008B5FFF7F3FE18B1024B1868C0F3C00008BD00BF7F
:2041C0001810004008B5FFF7C7FE40F2F2710B4B0B4A1B68116013F0500F0AD108BD094B75
:2041E00009481B681B699847084B1B680BB1C0B29847074B1B68DB06F1D508BD40100040D4
:2042000044100040D001001000100040400F0020181000402DE9F0411646074688460AF04A
:20422000AEFD474B474A00241C600123136013621364454B20461B683F211B68013498471D
:20424000042CF6D10024404B20461B683F219B6801349847032CF6D13C4D2B68FFF744FE0E
:204260003B4809F032FF04462CB1A3680BB1032098472468F8E77B1C10D0364901230A68AA
:20428000BB4022EA03030B60334B46F000521B6838461B68214642EA080298472F4F0026FC
:2042A0002F4C3E60236807209B69984700F02AFA09F0C5FD2B4B38201A6822F003021A60A0
:2042C0005A6822F4C0525A609A6822F00F029A60254B1E602368254C9B699847244B266059
:2042E0001B680120DB689847224A26603B46166090462646204A126812F02004FAD11F4A8F
:20430000012717601E4A1F48146054601C601E4B1E4A1C602B681368032123F00303136080
:204320001B4B1B685B6898471A4B3460C8F800401F602B680A4BBDE8F0411B689B6B1847D4
:204340000000244380002443840100102C200940440F0020D0200240B40100100C400940E6
:20436000B8010010001009408001224340100940A001001020042243141009408801044325
:2043800040012243004003400800094024220840D801001018100940034A136823F00403D9
:2043A000136030BF704700BF10ED00E070B50AF0E6FC01F03DFB18B1BDE8704009F038BD12
:2043C000FFF7F8FC044609F000FD201A202805D509F02EFDBDE87040FFF7DEBF504809F0BA
:2043E00074FE0446022544B1636823B19847A84228BF2846C5B22468F5E701F009FA04460B
:2044000001F0FEF948B1FFF777FC241AFFF706FD00EB44210220FFF7DFFC012DD8D040487A
:2044200009F053FE0446062644B1A3680BB1284698472369246826EA0306F5E7FFF754FD5F
:20444000730748BF374B06F0060548BF1C6025B1354B28461B689B69984700F053F9334AF2
:2044600000241368392023F0030313605368304E23F4C0535360936843F00F0393602D4BF7
:204480001C60294B1B689B6998472B4B34601B680120DB689847294B34601C60284B18687F
:2044A00010F02000FAD105F03FFD062D02D1022005F0A2FA234C244D244E2B68236824484B
:2044C00023F003032360336803215B689847164B1B689B6B98472B6805F0EEFD1D4B002219
:2044E0001A6033681A4801215B6898472368012243F0030323600B4B1A602B6805F00CFEB5
:2045000009F053FCFFF7F0FC054809F0DEFD0446002C3FF451AFE36803B198472468F7E75F
:20452000440F00200C400940B8010010001009404010094080012243A00100102004224398
:2045400014100940242208402C200940D801001000400340800104430146014809F0D3BD7E
:20456000440F00200146014809F0B9BD440F002010B5054809F0A6FDBDE81040034B022043
:204580001B6820211B681847440F002084010010431C10B504460DD0074B00211B684FF4E9
:2045A000C0421B689847054901230A68A34022EA03030B6010BD00BFB4010010D0200240D0
:2045C00038B504460D460AF0DAFB0123054AA3401360054B43F8245018B9BDE838400AF0D2
:2045E000D2BB38BDE0200240480F00200023064A002142F823100133202BF8D1034B1020B9
:204600001B681B69184700BF480F0020B001001038B5094B00241D681D600123A3402B4262
:20462000E0B204D0054B53F8243003B198470134202CF2D138BD00BFE0200240480F0020E1
:2046400010B5074C18B9236801205B689847236840205B689847034B00221A6010BD00BF20
:20466000A00100100002224338B50A4C05F0A8F9236801209B689847236805461B68012041
:204680009847044B01201B689B6898471128F8D1284638BDA001001013B5FFF7E5FF044664
:2046A000042005F07BF9032810D00420032105F04FF9042005F072F90328FAD100900021B2
:2046C00005484FF040521C2305F0FEF8204602B0BDE81040FFF7B4BF00A00C4010B5FFF775
:2046E000C3FF0446012005F059F9012802D0044B9B6B98472046BDE81040FFF7A1BF00BFA7
:204700004800001010B5FFF7AFFF00210446032005F01EF9012005F041F910B1034B9B6BD9
:2047200098472046BDE81040FFF78ABF48000010034A00211368197219711B6813607047FD
:20474000D00F002008B506F0CFFB20B1024B5888831E5842584108BD8C10002037B5FFF7A8
:20476000F1FF0446E0B9104801A906F0C5FB012814D109F02AFB05460B4B5A881C46022A71
:2047800004D16488A31E5C425C4107E009F01DFB6FF03F035B1BC342EED4F2E7204600E067
:2047A000012003B030BD00BF8C10002000B589B002A8182140F602020AF0E9FB154B02A8CA
:2047C0001A689DF81A30117961F305038DF81A30517961F387138DF81A3092799DF81B3051
:2047E00001A962F347038DF81B300B4B079301238DF8163006F080FB012806D102A806F0B0
:20480000BBFB431E5842584100E0002009B05DF804FB00BF480600204C06002038B5084B62
:2048200000201D461C682379032B03D1054801F04DF9012024682B689C42F4D138BD00BFB8
:20484000C80F0020BC07002008B50346B32994BF0A46B4220248194608F052FC012008BD4E
:20486000D60F002070B5114B1E683379032B1AD1337A032B02D8FFF75BFF14E0357AEDB220
:204880002C1F8C42F7DC224606F10901073508F037FC715D042049B289B205F0DFFEFFF76C
:2048A00047FF204670BD002070BD00BFD00F002013B506F051FC044606F016FB50B1064869
:2048C00001A906F019FB012804D1638803F44063002BFAD002B010BD010001040B2811D112
:2048E000082A11D181B1094B013913F8012C084801F8012FA3F12902904203F1FF33F4D1B7
:20490000002070470120704702207047BC1000208C10002007B5FFF715FFB8B109F0CCFA79
:204920000028FBD10B4801A906F0E6FAFFF70AFF0028FBD142F20242074B5B88934205D066
:2049400042F207401B1A5842584100E0012003B05DF804FB010001048C10002010B506F0EF
:204960009FFC012814D009F0A7FA04460028FAD1FFF7D0FF06F0F6FBFFF7C4FE054B5C8028
:20498000054B1C71054B1C71054B1C71054B1C71012010BD8C100020981100200C110020F3
:2049A00024120020B012002038B509F060FA06F077FC012801D1012038BDFFF7C3FE002826
:2049C000F9D10AF0F3FA012801D0002038BD144A144B51795D7960F383015171124960F373
:2049E0008305842419605D711360DC800F4B4D791A60D4805A7960F3830560F383020B6092
:204A00004D71CC805A71DC8006F05EFBFFF766FEFFF7CCFE0128D8D1BDE83840FFF79EBEBB
:204A2000981100200C11002024120020B012002073B50C46072800F28580DFE800F0040FCE
:204A40001A1D20833868012905D1FFF7ADFF01287AD003207DE0002978D170E0A1F10B03E5
:204A60000F2B73D83C4BCCB29A7BA2426CD09C734FE0394B59864CE0374B198649E031F03F
:204A8000030563D1344AC1F34004137E61F30003DBB243F0020364F3820303F0870365F306
:204AA000C7131376537E65F3C713537631E001F115031A2B4AD80C26284BF20053F836101D
:204AC0001D468C4203DC1344254A136002E016F1FF36F1D206F008FA00283AD01023ADF8AA
:204AE000043005EBC6031A79597902F03F0261F387128DF806204FF000029B7901A863F345
:204B0000470269468DF8072006F0F6F91CE0124B1977FFF717FE28B9FFF746FF012898D16A
:204B2000054600E00025FFF7F5FE012814BF03240024FFF713FE012818BF032445B1FFF7DB
:204B40000DFF05E0012004E0002002E0022000E0204602B070BD00BF8C100020DCF30000CC
:204B60004806002073B50C46002967D0102867D8DFE800F0091015181B662D313566666633
:204B8000665B5D5F6200FFF7DDFD003018BF0120206002E02D4B9B7B2360002053E02B4B02
:204BA0005B8EF9E7294B1B8EF6E7284B002008601A7E02F001020A60197E01F0040101F0C2
:204BC000FF0300293ED042F0020222603BE0204B1B681B68E0E71D4B93F91C30DCE7FFF798
:204BE000B1FD28B9FFF7E0FE012816D1064600E000260023019340F2034301A86946ADF8C4
:204C0000043006F079F901280CBF9DF8025080250EB1FFF7A3FE6BB201E06FF07F032360C0
:204C200080330CBF032000200DE00B23B4E71A23B2E76FF01403AFE70523ADE7022002E05B
:204C4000012000E0184602B070BD00BF8C1000204806002070B588B00446FFF773FD28B93F
:204C6000FFF7A2FE012842D1054600E0002509F0ACF8064609F020F901280AD109F0A5F87D
:204C80006FF01F039B1BC342F4D425B1FFF766FE01E010B1F9E702202CE0182102A842F615
:204CA00001420AF074F9144B0120E4B28DF81740069306F037FA02A801A906F01DF908B977
:204CC00001240EE0BDF80A3003F4406313B9FFF763FBF7E7BDF80A40A0B2B0F5105418BF09
:204CE000012406F031FA25B1FFF738FE01E0012000E0204608B070BDD60F00200B2810B542
:204D00001ED1082A1ED1E9B10F4A01F1080313F8010D8B4202F8010FF9D1FFF713FD28B9F2
:204D2000FFF742FE012809D1044600E00024FFF7F1FDFFF713FD0CB1FFF710FE032010BD51
:204D4000012010BD022010BDB310002070B5264C2648FFF701FC06F07BF9204600218C22FC
:204D600008F0A8FA00218C22214808F0A3FA00218C22204808F09EFA00218C221E4808F0D8
:204D800099FA1E4E1E4B34601C601E4C0025204629468022756008F08DFA42F601030F22D4
:204DA000A2733922E273184A2380626107222276FF22A2767B220123E276A622637326612E
:204DC0006376227784F83730FFF7EEFD0128044607D10E4806F022FA0D48294600F05EFEDA
:204DE00000E02C46204670BD98110020340600200C11002024120020B0120020C80F00203F
:204E0000D00F00208C100020BE2700207CF40000BC0700200FB407B504AA52F8041B04489D
:204E2000019200F035F803B05DF804EB04B07047780600201FB5084C8DE80300114602A821
:204E40001A460294CDF80CD000F022F8009B00221A7004B010BD00BFD7DF000070B5054604
:204E60000C46102C07D92B68686808491022984750B9103CF5E734B12B6868682246BDE879
:204E8000704002491847204670BD00BF34FC00002DE9F04F80468FB0069107920026069BE5
:204EA0001B78002B00F05F83069B1C4613F8012B1AB9069B9C4203D10FE0252AF5D1F8E71F
:204EC000069BD8F80400E51A0699D8F800302A469847002840F02A832E442378002B00F043
:204EE00042836378611C002B00F03D8300240A4611F8013B2B2B11D006D8202B11D0232B72
:204F000012D144F00804F2E72D2B04D0302B0BD144F01004EBE744F00104E8E744F00604D2
:204F2000E5E744F00204E2E7A3F1310108290DD8134600251A4613F8011BA1F130000928CE
:204F400011D80A2202FB0515303DF3E72A2B09D1079B01321D68191D002D0791B8BF44F0AF
:204F6000010400E0002513782E2B1CD15178531CA1F1300009280ED8194600270A780B46EC
:204F8000A2F13000092801F101010FD80A2303FB0727303FF2E72A2906D1931C079A111DF9
:204FA0000791176802E013464FF0FF371A786C2A09D15A786C2A02D144F080040AE0013317
:204FC00044F060040BE0682A09D15A78682A03D144F02004023302E0013344F040041A78FD
:204FE000642A3CD01FD8462A48D00DD8252A5AD003D8002A00F0B78257E0412A4AD0452AE1
:2050000053D144F4424450E0582A31D004D8472A4BD144F4A13448E0612A38D0632A44D128
:2050200044F4A06441E06E2A3AD007D8662A22D027D3672A28D0692A11D036E0732A2CD06A
:2050400006D86F2A11D0702A2FD144F440742CE0752A07D0782A28D144F4C85425E044F4C4
:20506000245422E044F410641FE044F488541CE044F4B24419E044F4007416E044F4844432
:2050800013E044F4024410E044F481340DE044F4C1340AE044F4E13407E044F4806404E08A
:2050A00044F4E06401E044F4C0640133069304F4E063B3F5806F00F0AA8116D8B3F5807FE8
:2050C0002BD0B3F5407F7FF4EAAE079BA04914F4804F03F104029F4818BF08460DF13301C9
:2050E00007920F461A680023C5E1B3F5C06F08D0B3F5E06F00F03182B3F5A06F7FF4CFAE87
:2051000000E2D8F80030D8F80400934901229847002840F00B820136C1E6002FACBF24F08A
:205120001004012714F40053039304F0E00337D0402B17D008D8DBB1202B2AD1079B1A1D87
:20514000079293F9002017E0602B11D0802B20D1079B073323F0070303F108020792D3E9BF
:2051600000230AE0079B1A1D0792B3F9002003E0079B1A1D07921A68D317002A73F1000194
:2051800009DA524263EB4303CDE900234FF0010933E000220023CDE900234FF000092CE05D
:2051A000402B16D007D8CBB1202B20D1079B1A1D07921A78EEE7602B10D0802B17D1079B8E
:2051C000073323F0070303F108020792D3E90023E1E7079B1A1D07921A88DBE7079B0021A1
:2051E0001A1D07921B681846CDE90001D5E700220023CDE900234FF0000904F4C053B3F572
:20520000805F0CD0B3F5C05F33D0B3F5006F4FD1DDE900230DF1360ACDE9042304E0DDE924
:2052200000230DF1360A15E0DDE9042313433AD0DDE904010A22002307F004FCDDE90401EF
:2052400030320AF8012D00230A2207F0FBFBCDE90401E9E752EA030125D002F00701303165
:205260000AF8011DD10841EA4371D8080A460346F0E7384B14F4804F0DF1360A344908BF2A
:205280001946DDE9002352EA03000CD002F00F00085C4FEA131E0AF8010D100940EA037016
:2052A00002467346EFE70DF1360BCAEB0B0B03E00DF1360A4FF0000B41F6080241F2080323
:2052C0005F4502EA04028CBFCBEB070700279A4202D1002F08BF012741F608018A4207EB37
:2052E0000B030DD1DDE9000150EA010208D01B4914F4804F1A4A4FF0020C18BF0A4602E0F1
:205300004FF0000C62460399A1B1B9F1000F0AD104F0060102290AD00629124904BF4FF08C
:20532000010C0A4606E04FF0010C0F4A02E00F4A4FF0010C63449D428CBFED1A002514F0FD
:20534000010922D1E30613D52F444D461DE000BFFFFB000010FC000032FC000024FC000069
:2053600021FC000029FC000027FC000070F9000040462946CDF80CC00092FFF76FFD009A4B
:20538000DDF80CC0002840F0D180BCF1000F0DD01146D8F800306246D8F80400CDF800C0D2
:2053A0009847DDF800C0002840F0C0803C465E44102CD8F800300DD9D8F804006C491022E0
:2053C000CDF800C09847002840F0B080103CDDF800C0EDE75CB1D8F8040065492246CDF870
:2053E00000C09847DDF800C0002840F09F80D8F80030D8F8040051465A4666449847002846
:2054000040F094803E44B9F1000F79D073E0079BD3F800A01A1D0792BAF1000F09D0534668
:20542000994699F800200133002AF9D1CAEB090903E0DFF840A14FF00609002F02DBB945FA
:2054400028BFB9464D458CBFC9EB0505002514F0010405D140462946FFF700FD002865D181
:20546000D8F80030D8F8040051464A46984700285CD14E443EE052EA030E0ED002F00F0E13
:2054800010F80EE04FEA131C01F801ED4FEA121E4EEA037E72466346EDE70B467F1A01BFC6
:2054A0003022012701F1FF3301F8012C03377822BD4203F8012C4FF0300203F8022C88BF4C
:2054C000ED1B4FF0230298BF002514F00104A3F1030903F8032C04D140462946FFF7BEFC97
:2054E00020BBD8F80030D8F8040049463A469847E0B93E4424B140462946FFF7AFFCA8B928
:205500002E44CCE4079B012D03F104021B688CBF05F1FF35002514F0010407928DF820300B
:2055200008D140462946FFF799FC10B14FF0FF301AE02E44D8F80030D8F8040008A90122CF
:2055400098470028F2D16F1C2CB140462946FFF785FC0028EAD13E44A1E4079B1A1D1B6867
:2055600007921E609BE430460FB0BDE8F08F00BF44FC00002BFC0000F8B503880646154637
:205580002BB14A2B15D0002303800320F8BD174808F09BFD04462CB1201DA16808F047FDBF
:2055A0002468F8E7124B01221A704A2333800120F8BD8829FBD10D4808F087FD0446002CBC
:2055C000F3D0231D9D420ED10848214608F087FD084B62691F681A60A2691D460AB1E06946
:2055E00090472F60E1E72468E9E700BF3C130020CE2700204C13002010B5064B00240648D7
:205600001C7008F05FFD2146BDE81040034800F045BA00BFCE2700203C130020800600202B
:2056200070B50446E3610B4B049D1B786561A26143B1094D094B2E68201D2B6008F0F7FC7D
:205640002E6000E0A1602146BDE87040044808F05ABD00BFCE2700204C13002080060020CB
:205660003C13002013B5034C24680094FFF7D8FF02B010BD4C13002070B5094B05461B7862
:205680003BB1084C084B26680430236008F0D8FC26602946BDE87040044808F034BD00BF28
:2056A000CE2700204C130020800600203C13002010B5084B04461B781BB1043000F0B2F8B2
:2056C00001E0C36003612146BDE81040024808F006BD00BFCE2700203C13002010B50E4C9F
:2056E000236813B90D4A136010BDFEF705FB216891E80C001A44131A8A6842B192E81200BD
:205700002144091A8B4228BF0B469268F5E71844024B186010BD00BF40130020441300208F
:20572000014800F0D3B900BF90060020F8B5038805462BB1592B09D0002303800320F8BDF5
:205740001E4A136059232B800120F8BD872920D08229F7D1194F00263C68002CF2D02046D8
:2057600008F0A2FC90B1E0688821224600F06AF950B9E060A3680EB1B36000E03B600023E2
:20578000A360FFF7ABFFE5E7FFF7CAFF2646A468E3E70A490B680BB90B60D3E7D8689042D8
:2057A00001D19B68F7E70B6099680029CAD0C86890420ABF89680B469960F5E740130020B2
:2057C00010B50446FFF7ACFFE3680B4A4BB113683BB1A34203D1094A1268DA6007E09B686C
:2057E000F6E7064B1B68E36013681460A360BDE81040FFF773BF00BF401300204C130020F5
:20580000024B1868003018BF0120704740130020024B186808B1024B1868704740130020EC
:205820004413002010B50B4A04461368984206D18368136008E09A68A24203D01346002BDE
:20584000F9D103E0A2689A60FFF748FF0023A360E36010BD4013002038B5836804460D463C
:205860009BB10A4804600220A07304F10C0098470238012801D9832D05D120462146BDE8DC
:20588000384000F005B80123A37338BD4C1300202DE9F8431C4A0446156889462B469046A1
:2058A0001A4E3768A34204D00BB11B68FAE7BDE8F88334B3A37BABB10023A37345B1AC426A
:2058C00004D028468721224608F0D4FB2D68F5E7A3683BB14C4505D0346004F10C008321A8
:2058E0002A469847D8F800309C4203D12268064B05E0134623B11A68A242FAD122681A6085
:205900003760BDE8F88300BF501300204C13002010B5094B00221A70084B1C685CB1E37B08
:205920003BB101230022A373E27320468221FFF793FF2468F2E710BDD3270020501300206A
:20594000024B1878421C1A70704700BFD4270020064B8A221A70064A00231370054A1370A2
:20596000054A1360054A1360704700BFD4270020CF270020D1270020501300204C130020E2
:205980002DE9F041214E33780BB1FFF7C1FF204D2C78002C34D0DFF88CE00C229EF80030BC
:2059A0001C495A4388181C4F895CDFF87C804268DFF878C08068013303F01F03013C397052
:2059C000C8F80020CCF800008EF800302C7088B9124C134B1B68236023688BB133780BB1A0
:2059E000FFF796FF20683978D8F8002008F042FB2368EFE7812904BF0123837308F03AFBA9
:205A0000337828781844BDE8F08100BFD3270020D127002054130020D027002048130020BF
:205A200050130020CF270020D4140020D8140020024A034B10781B7818447047D1270020D9
:205A4000D3270020F0B50C4E3478202C11D00B4B0B4D1B780B4F234403F01F032B700C2571
:205A60006B430134FD18A860F9546A6034700020F0BD0120F0BD00BFD1270020CF270020E3
:205A8000D22700205413002038B5034C256808F0F1FA256038BD00BF4C13002010B50A46ED
:205AA00009490C68234683420DD00BB11B68FAE748B1046008600121817383818121BDE8CF
:205AC0001040FFF7E1BF10BD5013002038B1837B013B012B9FBF024A0123C3731370704703
:205AE000D327002010B5084C206858B100232360816843689847236823B1BDE810401868F5
:205B000008F05FB910BD00BFDC14002038B505880446672D09D0792D2ED0002D32D1FFF7DE
:205B20000FFF1B4B18701B4B1D601B4808F071FB431C01D167231DE00A28164B07D01A681B
:205B40007E2AF2DC511C1960144B9854EDE7196800254A1C1A60114A0D4B555428461978E9
:205B6000FFF770FF0E4B852118682A46FFF76AFF20B97923238009E0852907D1054B002279
:205B80001A60D2E700230380032038BD012038BDBC370020E8140020E0140020552800201E
:205BA0004C13002008B505480549802208F02AFBBDE8084003480021FFF770BFE0140020BD
:205BC000D5270020A00600200C4AB82303FB0022002330B553821A46094CE1188D782DB124
:205BE0001C5D844202BF00248C70013240F24C5171338B42F0D1104630BD00BF0815002012
:205C0000E028002008B5064802F04CFA054B01221A7000225A70AA229A70DA7008BD00BF8C
:205C20006D5E0000D628002010B50F4C0220A17904F014FDA379112B01D0062B05D1238D3A
:205C4000618D9942A8BF194608E03A2B05BF94F8281094F82930002143EA01210120BDE8C5
:205C6000104004F0FBBC00BF742F002010B513780446087A83F0020398421DD1487A5378BE
:205C8000984219D1887A9378984215D1C87AD378984211D1087B137998420DD1487B5379D4
:205CA000984209D1887B9379984205D1C87BD379984201D103201BE00B890F4A6BB94B8933
:205CC000B3F57F4F09D18B89FE2B06D11368C989022023F8021B13600AE0136851F8080F01
:205CE000083343F8080C486843F8040C13600120A040C0B210BD00BFF414002010B5084C6C
:205D000001462378012B08D1A01C082207F0C6F900280CBF2046002010BD002010BD00BF0E
:205D2000D628002008B50146102004F0A5FC044B04489B6800219847BDE80840FEF7D4B870
:205D4000D8F40000495D000010B508460C46114601F038FD044B1B6813B19B682046984711
:205D6000024B1C6010BD00BF0415002000150020F8B505460023114A712404FB0324A27815
:205D8000B2B9617004F0BAFB26460D4F0D4A3B7806F8035BC01A1568A0701D4404F0AEFB8B
:205DA0003A782946821A304607F0AAF9A078F8BD01330C2BDFD14FF0FF30F8BDE0280020E3
:205DC0002C2E0020F81400202DE9F8434FEA1219B9F10F0F80461D4602F00F040BD00F2C5C
:205DE00005D1B9F1000F0AD11024274619E0B9F1000F09D004E00F2C4FF0100900D1102491
:205E000040464A4607F07CF909EB04020F2A274606DC08EB09000021C2F1100207F04AFA61
:205E2000BCB1114DC7F110002E6840443146224607F066F9022C08D1B9F10A0F9FBFFF2336
:205E400088F80B30FE2388F80C3034442C60BDE8F883B9F1000F05D040462946BDE8F84323
:205E600008F03BBABDE8F883F41400202DE9F04F904F914E002387B03B703370044604F0F4
:205E80008BFB04F027FB8D4D04212860092004F0E5FB8B4B8DE8C0001B68A9460BB1FFF7B3
:205EA000C3FE04A80CB9874900E0214608F073FF854B864E1A8803933E2A40F20182D9F865
:205EC00000B0834D0BF102032B60009B06F1180093F80080002308F102080BF80830FFF7AA
:205EE0000DFF20B906F10800FFF708FF20B10BF103032B60802400E00446727831781309E6
:205F000043EA0113DBB2980840EA8313DBB212F00F0FDEB26E4F01F00F010CD16B48408800
:205F200048B911B912F0F00F1FD03B6803F8016B3B6070261AE079B912F0F00F0CD12968D0
:205F400023F03F031A43634B0A701B88033121F8023C6826296009E05C4A2B681068186010
:205F600003F8046B2B60602600E07826574B9A790293112A08BF46F0040673075EBF3B6862
:205F800003F8012B3B60029BDB79402B06D0FF2B07D0012B08D146F0010609E046F00206A3
:205FA00006E046F0030603E03A6802F8013B3A60029A464B128982B95A8972B99A8962B918
:205FC000DA8952B91A8A42B95A8A32B99A8A22B9DB8A13B944F0400013E03F48FFF78EFE45
:205FE0003E4B186078B142781BF80830042043EA02130BF808303849394AFFF737FE60F052
:206000003F00C4B227E0029B30491A8948F2FE039A420CD14B8B53B98B8B43B9CB8B33B9E1
:20602000042008312E4AFFF721FE2043E9E73A68DFF8A4C096460CF1100A634603CB534564
:20604000CEF80000CEF804109C460EF1080EF4D11F4B10321A60DFF874A09AF81830FF2BCF
:2060600040F08A809AF8192044F0080E022A5FFA8EFE37D1BAF81A30A3BBBAF81C308BBB1A
:20608000BAF81E3073BBBAF820305BBBBAF8223043BBBAF824302BBB9AF8263013BB3B6873
:2060A0009AF8272044F00B0003F8012BC4B23B609FE000BFD52800202C2E0020F81400208F
:2060C00004150020E5FC0000642F0020742F0020F4140020762F00207C2F0020EC14002058
:2060E0006C2F00209B4B588B194688BB988B78BBD88BA8B9188C98B9588C88B993F8240097
:2061000070B9296844F00A00C4B2084600F8012B33F8252F043121F8032C9B78837015E0A8
:20612000C98B8C4BA1B9198C91B993F8221079B9296844F00900C4B2084600F8012B53F8FB
:20614000232F063141F8052C1B790371296050E0814ADFF818C214680CF110082746634668
:2061600003CB4345386079609C4607F10807F6D11034146074463CE00AF11800FFF7BEFD56
:20618000764B186050B143781BF8081044F004040B43E4B20BF8083000200EE048F2FE033B
:2061A000BAF818209A4210D1BAF81A306BB9BAF81C3053B9BAF81E303BB90AF1180104AA58
:2061C000FFF754FD2043C4B213E0634ADFF89CC117680CF11008BE46634603CB4345CEF86E
:2061E0000000CEF804109C460EF1080EF4D110371760019A5749282313708B79112B53D1DE
:206200004FF2B0030A8D52BA92B222F00F0080B2984217D14B8D5BBA23F00F031B041B0C36
:2062200083420FD12868F32303704B8D02301A0A0B8D1B0A02EB031303F5AA6300F8013C78
:20624000286028E0029B43495B8D5BBA03F47F43B3F5704F09D12B68F1221A700A8DA3F82C
:2062600001204A8D120ADA700CE002F47F42B2F5704F2B6808D1F2221A700A8D120A5A7030
:206280004A8D5A80043305E0F0221A70886A053343F8040C2B60324B1A882B6823F8022B9B
:2062A000019A2B6030231370009BD9F800201B78D65413445C70284B1B689B1A009A1AE037
:2062C000D9F8002041231370009B06F128051C78631CDBB21344324603CAAA4218605960CE
:2062E000164603F10803F6D1009B29341C70019B019A1B782833102013700DEB000104F033
:20630000BBF9184BDFF868801B68984730EA200028BF1520039BC0F17D051C88019BDFF807
:2063200054A01E78009BA21B93F800B00E4FCBEB05039A4240F3CD80C0F17803019304F015
:20634000C5F9019B94FBF3F40134A04214DC0020D1E000BF742F0020F4140020EC140020CB
:20636000A22F002090F400002C2E00208C2F0020642F0020D5280020D9F800B05F4B3C78A4
:2063800000221A60594622460BF10400039306F02DFFB8F800205A496FEA82426FEA9242E5
:2063A000C2F307228BF80020B8F8002004348BF801200A88E4B2501C0880110ADFF850C191
:2063C0008BF802102D1B9AF8001025F007054D4E61448BF803200BEB04002A46CDF808C040
:2063E0003C70356006F08CFE281980B204F06CF804F072F9039B04461D460028A7D00DF1CA
:20640000100B5846FFF78EFC204604F09DF9204604F084F92B68012B99D0043B012B96D97A
:206420009AF800A0336853441FFA83FA05233B70354B1A68B8F800306FEAC3436FEAD343DF
:20644000C3F307231370B8F800305370019B23F0070737602D4B1B889A454BD2D9F80020DA
:206460004FEADA0111713268CAEB03039342B8BF244AD9F80000B8BF1360009B376893F8F7
:206480000080029B3A4603EB0A01404406F038FE08EB070080B204F017F804F01DF9074630
:2064A00000283FF454AF5846FFF73CFC384604F04BF9384604F032F9124B1B689A442B680E
:2064C0001FFA8AFA012B3FF442AF043B012BC1D83DE7D9F800000E495844314406F010FE6A
:2064E000B8F800005844801B80B203F0EDFF04A8FFF718FC012007B0BDE8F08F00150020BD
:20650000DE210020FC140020F8140020642F0020742F00202DE9F047074688461646002A9C
:2065200047D0434C0025A146238ABB4215D1638A9BB10F2004F0ACF80146204608F030FC48
:2065400058B1ECB220463146FFF712FC002827DA0027DFF8E0A0B8460DE0B834002D5DD1DA
:206560000125E1E7A8450BD10AF1B80AB8F1000F10D14FF001083AF8063C002BF4D0F1E78B
:20658000504607F091FD0028EED04046FFF71CFB0744E9E7002F41DD20463146FFF7E8FB49
:2065A00000283BDDB82303FB0595AB8A1844A8823AE0204DFF2435F8063C4FFA84F97BB360
:2065C000284607F071FD10B13046FFF7FDFAB9F1FF3F03D135F8063C03B9F4B2012E05F112
:2065E000B80501D00126E6E765B26B1C16D0B8235D43DFF83C900F2009EB0506A6F8128019
:20660000378204F045F80146304608F0C4FB05F118004844402107F035FD05E0FF2403E00D
:20662000B9F1FF3FDAD1D8E760B2BDE8F08700BF08150020201500202DE9F04FA44CDFF86D
:20664000C8A287B000268AF80060267003F042FFA04DA0462860042004F008F89E4B2A68D9
:2066600000B218605778137847EA032703F0F803C02B02D0E02B19D03AE090782378D27895
:20668000C7F30A07043342EA0020394632462370FFF740FFB0F1FF3F814600F080828F4C7A
:2066A000B82303FB00440126223424E01379D17890782278C7F30A070532227041EA0020E6
:2066C0001A4639460093FFF725FFB0F1FF3F814600F065828149B82202FB0012958A4FF0A0
:2066E000010BBD4234BF002501253446009BE0E1B1464F467A4C296898F800504A5D02F01F
:20670000E003602B40F0B781A81C084429444D78744B5FFA85FC1CF0800F18601CBF0130A9
:20672000186012F0100F02F0080130D1D1B9196831F8010FA4F801008978E170196811F807
:20674000040B1960830803F00F0141F060012170617803F0300343EA801301F00F010B43F2
:20676000637030E018686021864621701EF8011B03304FEA910B0BF0300B01F00F014BEA32
:2067800001016170BEF80010186061801BE001F0FF0E99B919680878C0F3830040F06000F5
:2067A000207011F801BBA4F802E04FEA9B0000F0300040EA8B106070196004E0602323700A
:2067C00000236370638002F0040303F0FF0100912BB944490B6813F8010BA0710B6012F0EA
:2067E00003020BBF3F4A404B13689B5C09BF13F8011BE3711360E1716B06C5F3011233D5F8
:206800001CF0800F1DBF334998F80030096800211EBF5B189978090922B904F1080B9AB98A
:20682000114614E0314B1878012805D1587888420CBF1946002100E000212D4B1960002902
:20684000EBD1B3460D4633E1294B19680231294B0F209A5C0391CDF808C0019203F018FF9D
:206860000399034658460BE0234B0F209A5CCDF808C0019203F00CFF2049034604F108004A
:20688000019AFFF7A1FA05F00800DDF808C005F0030200F0FF0105F00403002836D0002BF3
:2068A0006CD1174B1B88ADF81430531E012B9FBF0C490B6813F8010B0B60124B98BF8DF82F
:2068C00015009A5C04F1180005A9002354E000BF2C2E0020F8140020F014002008150020D5
:2068E000742F0020F41400207FFC0000D6280020EC14002098FC000083FC000087FC00005E
:206900007DFC000089FC0000D528002053B31CF0800F1DBFA34998F8003009680B4618BF9A
